{
  "abi": [
    {
      "inputs": [
        {
          "internalType": "uint256",
          "name": "minimum",
          "type": "uint256"
        },
        {
          "internalType": "address",
          "name": "creator",
          "type": "address"
        }
      ],
      "stateMutability": "nonpayable",
      "type": "constructor"
    },
    {
      "inputs": [
        {
          "internalType": "uint256",
          "name": "index",
          "type": "uint256"
        }
      ],
      "name": "approveRequest",
      "outputs": [],
      "stateMutability": "nonpayable",
      "type": "function"
    },
    {
      "inputs": [
        {
          "internalType": "address",
          "name": "",
          "type": "address"
        }
      ],
      "name": "approvers",
      "outputs": [
        {
          "internalType": "bool",
          "name": "",
          "type": "bool"
        }
      ],
      "stateMutability": "view",
      "type": "function"
    },
    {
      "inputs": [],
      "name": "approversCount",
      "outputs": [
        {
          "internalType": "uint256",
          "name": "",
          "type": "uint256"
        }
      ],
      "stateMutability": "view",
      "type": "function"
    },
    {
      "inputs": [],
      "name": "contribute",
      "outputs": [],
      "stateMutability": "payable",
      "type": "function"
    },
    {
      "inputs": [
        {
          "internalType": "string",
          "name": "description",
          "type": "string"
        },
        {
          "internalType": "uint256",
          "name": "value",
          "type": "uint256"
        },
        {
          "internalType": "address payable",
          "name": "recipient",
          "type": "address"
        }
      ],
      "name": "createRequest",
      "outputs": [],
      "stateMutability": "nonpayable",
      "type": "function"
    },
    {
      "inputs": [
        {
          "internalType": "uint256",
          "name": "index",
          "type": "uint256"
        }
      ],
      "name": "finalizeRequest",
      "outputs": [],
      "stateMutability": "nonpayable",
      "type": "function"
    },
    {
      "inputs": [],
      "name": "manager",
      "outputs": [
        {
          "internalType": "address",
          "name": "",
          "type": "address"
        }
      ],
      "stateMutability": "view",
      "type": "function"
    },
    {
      "inputs": [],
      "name": "minimumContribution",
      "outputs": [
        {
          "internalType": "uint256",
          "name": "",
          "type": "uint256"
        }
      ],
      "stateMutability": "view",
      "type": "function"
    },
    {
      "inputs": [
        {
          "internalType": "uint256",
          "name": "",
          "type": "uint256"
        }
      ],
      "name": "requests",
      "outputs": [
        {
          "internalType": "string",
          "name": "description",
          "type": "string"
        },
        {
          "internalType": "uint256",
          "name": "value",
          "type": "uint256"
        },
        {
          "internalType": "address payable",
          "name": "recipient",
          "type": "address"
        },
        {
          "internalType": "bool",
          "name": "complete",
          "type": "bool"
        },
        {
          "internalType": "uint256",
          "name": "approvalCount",
          "type": "uint256"
        }
      ],
      "stateMutability": "view",
      "type": "function"
    }
  ],
  "devdoc": {
    "kind": "dev",
    "methods": {},
    "version": 1
  },
  "evm": {
    "assembly": "    /* \"Campaign.sol\":423:2276  contract Campaign {... */\n  mstore(0x40, 0x80)\n    /* \"Campaign.sol\":976:1124  constructor(uint minimum, address creator) {... */\n  callvalue\n  dup1\n  iszero\n  tag_1\n  jumpi\n  0x00\n  dup1\n  revert\ntag_1:\n  pop\n  mload(0x40)\n  sub(codesize, bytecodeSize)\n  dup1\n  bytecodeSize\n  dup4\n  codecopy\n  dup2\n  dup2\n  add\n  0x40\n  mstore\n  dup2\n  add\n  swap1\n  tag_2\n  swap2\n  swap1\n  tag_3\n  jump\t// in\ntag_2:\n    /* \"Campaign.sol\":1040:1047  creator */\n  dup1\n    /* \"Campaign.sol\":1030:1037  manager */\n  0x01\n  0x00\n    /* \"Campaign.sol\":1030:1047  manager = creator */\n  0x0100\n  exp\n  dup2\n  sload\n  dup2\n  0xffffffffffffffffffffffffffffffffffffffff\n  mul\n  not\n  and\n  swap1\n  dup4\n  0xffffffffffffffffffffffffffffffffffffffff\n  and\n  mul\n  or\n  swap1\n  sstore\n  pop\n    /* \"Campaign.sol\":1080:1087  minimum */\n  dup2\n    /* \"Campaign.sol\":1058:1077  minimumContribution */\n  0x02\n    /* \"Campaign.sol\":1058:1087  minimumContribution = minimum */\n  dup2\n  swap1\n  sstore\n  pop\n    /* \"Campaign.sol\":1115:1116  0 */\n  0x00\n    /* \"Campaign.sol\":1098:1112  approversCount */\n  0x04\n    /* \"Campaign.sol\":1098:1116  approversCount = 0 */\n  dup2\n  swap1\n  sstore\n  pop\n    /* \"Campaign.sol\":976:1124  constructor(uint minimum, address creator) {... */\n  pop\n  pop\n    /* \"Campaign.sol\":423:2276  contract Campaign {... */\n  jump(tag_6)\n    /* \"#utility.yul\":88:205   */\ntag_8:\n    /* \"#utility.yul\":197:198   */\n  0x00\n    /* \"#utility.yul\":194:195   */\n  dup1\n    /* \"#utility.yul\":187:199   */\n  revert\n    /* \"#utility.yul\":334:411   */\ntag_10:\n    /* \"#utility.yul\":371:378   */\n  0x00\n    /* \"#utility.yul\":400:405   */\n  dup2\n    /* \"#utility.yul\":389:405   */\n  swap1\n  pop\n    /* \"#utility.yul\":334:411   */\n  swap2\n  swap1\n  pop\n  jump\t// out\n    /* \"#utility.yul\":417:539   */\ntag_11:\n    /* \"#utility.yul\":490:514   */\n  tag_23\n    /* \"#utility.yul\":508:513   */\n  dup2\n    /* \"#utility.yul\":490:514   */\n  tag_10\n  jump\t// in\ntag_23:\n    /* \"#utility.yul\":483:488   */\n  dup2\n    /* \"#utility.yul\":480:515   */\n  eq\n    /* \"#utility.yul\":470:533   */\n  tag_24\n  jumpi\n    /* \"#utility.yul\":529:530   */\n  0x00\n    /* \"#utility.yul\":526:527   */\n  dup1\n    /* \"#utility.yul\":519:531   */\n  revert\n    /* \"#utility.yul\":470:533   */\ntag_24:\n    /* \"#utility.yul\":417:539   */\n  pop\n  jump\t// out\n    /* \"#utility.yul\":545:688   */\ntag_12:\n    /* \"#utility.yul\":602:607   */\n  0x00\n    /* \"#utility.yul\":633:639   */\n  dup2\n    /* \"#utility.yul\":627:640   */\n  mload\n    /* \"#utility.yul\":618:640   */\n  swap1\n  pop\n    /* \"#utility.yul\":649:682   */\n  tag_26\n    /* \"#utility.yul\":676:681   */\n  dup2\n    /* \"#utility.yul\":649:682   */\n  tag_11\n  jump\t// in\ntag_26:\n    /* \"#utility.yul\":545:688   */\n  swap3\n  swap2\n  pop\n  pop\n  jump\t// out\n    /* \"#utility.yul\":694:820   */\ntag_13:\n    /* \"#utility.yul\":731:738   */\n  0x00\n    /* \"#utility.yul\":771:813   */\n  0xffffffffffffffffffffffffffffffffffffffff\n    /* \"#utility.yul\":764:769   */\n  dup3\n    /* \"#utility.yul\":760:814   */\n  and\n    /* \"#utility.yul\":749:814   */\n  swap1\n  pop\n    /* \"#utility.yul\":694:820   */\n  swap2\n  swap1\n  pop\n  jump\t// out\n    /* \"#utility.yul\":826:922   */\ntag_14:\n    /* \"#utility.yul\":863:870   */\n  0x00\n    /* \"#utility.yul\":892:916   */\n  tag_29\n    /* \"#utility.yul\":910:915   */\n  dup3\n    /* \"#utility.yul\":892:916   */\n  tag_13\n  jump\t// in\ntag_29:\n    /* \"#utility.yul\":881:916   */\n  swap1\n  pop\n    /* \"#utility.yul\":826:922   */\n  swap2\n  swap1\n  pop\n  jump\t// out\n    /* \"#utility.yul\":928:1050   */\ntag_15:\n    /* \"#utility.yul\":1001:1025   */\n  tag_31\n    /* \"#utility.yul\":1019:1024   */\n  dup2\n    /* \"#utility.yul\":1001:1025   */\n  tag_14\n  jump\t// in\ntag_31:\n    /* \"#utility.yul\":994:999   */\n  dup2\n    /* \"#utility.yul\":991:1026   */\n  eq\n    /* \"#utility.yul\":981:1044   */\n  tag_32\n  jumpi\n    /* \"#utility.yul\":1040:1041   */\n  0x00\n    /* \"#utility.yul\":1037:1038   */\n  dup1\n    /* \"#utility.yul\":1030:1042   */\n  revert\n    /* \"#utility.yul\":981:1044   */\ntag_32:\n    /* \"#utility.yul\":928:1050   */\n  pop\n  jump\t// out\n    /* \"#utility.yul\":1056:1199   */\ntag_16:\n    /* \"#utility.yul\":1113:1118   */\n  0x00\n    /* \"#utility.yul\":1144:1150   */\n  dup2\n    /* \"#utility.yul\":1138:1151   */\n  mload\n    /* \"#utility.yul\":1129:1151   */\n  swap1\n  pop\n    /* \"#utility.yul\":1160:1193   */\n  tag_34\n    /* \"#utility.yul\":1187:1192   */\n  dup2\n    /* \"#utility.yul\":1160:1193   */\n  tag_15\n  jump\t// in\ntag_34:\n    /* \"#utility.yul\":1056:1199   */\n  swap3\n  swap2\n  pop\n  pop\n  jump\t// out\n    /* \"#utility.yul\":1205:1712   */\ntag_3:\n    /* \"#utility.yul\":1284:1290   */\n  0x00\n    /* \"#utility.yul\":1292:1298   */\n  dup1\n    /* \"#utility.yul\":1341:1343   */\n  0x40\n    /* \"#utility.yul\":1329:1338   */\n  dup4\n    /* \"#utility.yul\":1320:1327   */\n  dup6\n    /* \"#utility.yul\":1316:1339   */\n  sub\n    /* \"#utility.yul\":1312:1344   */\n  slt\n    /* \"#utility.yul\":1309:1428   */\n  iszero\n  tag_36\n  jumpi\n    /* \"#utility.yul\":1347:1426   */\n  tag_37\n  tag_8\n  jump\t// in\ntag_37:\n    /* \"#utility.yul\":1309:1428   */\ntag_36:\n    /* \"#utility.yul\":1467:1468   */\n  0x00\n    /* \"#utility.yul\":1492:1556   */\n  tag_38\n    /* \"#utility.yul\":1548:1555   */\n  dup6\n    /* \"#utility.yul\":1539:1545   */\n  dup3\n    /* \"#utility.yul\":1528:1537   */\n  dup7\n    /* \"#utility.yul\":1524:1546   */\n  add\n    /* \"#utility.yul\":1492:1556   */\n  tag_12\n  jump\t// in\ntag_38:\n    /* \"#utility.yul\":1482:1556   */\n  swap3\n  pop\n    /* \"#utility.yul\":1438:1566   */\n  pop\n    /* \"#utility.yul\":1605:1607   */\n  0x20\n    /* \"#utility.yul\":1631:1695   */\n  tag_39\n    /* \"#utility.yul\":1687:1694   */\n  dup6\n    /* \"#utility.yul\":1678:1684   */\n  dup3\n    /* \"#utility.yul\":1667:1676   */\n  dup7\n    /* \"#utility.yul\":1663:1685   */\n  add\n    /* \"#utility.yul\":1631:1695   */\n  tag_16\n  jump\t// in\ntag_39:\n    /* \"#utility.yul\":1621:1695   */\n  swap2\n  pop\n    /* \"#utility.yul\":1576:1705   */\n  pop\n    /* \"#utility.yul\":1205:1712   */\n  swap3\n  pop\n  swap3\n  swap1\n  pop\n  jump\t// out\n    /* \"Campaign.sol\":423:2276  contract Campaign {... */\ntag_6:\n  dataSize(sub_0)\n  dup1\n  dataOffset(sub_0)\n  0x00\n  codecopy\n  0x00\n  return\nstop\n\nsub_0: assembly {\n        /* \"Campaign.sol\":423:2276  contract Campaign {... */\n      mstore(0x40, 0x80)\n      jumpi(tag_1, lt(calldatasize, 0x04))\n      shr(0xe0, calldataload(0x00))\n      dup1\n      0x82fde093\n      gt\n      tag_11\n      jumpi\n      dup1\n      0x82fde093\n      eq\n      tag_6\n      jumpi\n      dup1\n      0x8a9cfd55\n      eq\n      tag_7\n      jumpi\n      dup1\n      0x937e09b1\n      eq\n      tag_8\n      jumpi\n      dup1\n      0xd7bb99ba\n      eq\n      tag_9\n      jumpi\n      dup1\n      0xd7d1bbdb\n      eq\n      tag_10\n      jumpi\n      jump(tag_1)\n    tag_11:\n      dup1\n      0x03441006\n      eq\n      tag_2\n      jumpi\n      dup1\n      0x0a144391\n      eq\n      tag_3\n      jumpi\n      dup1\n      0x481c6a75\n      eq\n      tag_4\n      jumpi\n      dup1\n      0x81d12c58\n      eq\n      tag_5\n      jumpi\n    tag_1:\n      0x00\n      dup1\n      revert\n        /* \"Campaign.sol\":1980:2273  function finalizeRequest(uint index)  public  {... */\n    tag_2:\n      callvalue\n      dup1\n      iszero\n      tag_12\n      jumpi\n      0x00\n      dup1\n      revert\n    tag_12:\n      pop\n      tag_13\n      0x04\n      dup1\n      calldatasize\n      sub\n      dup2\n      add\n      swap1\n      tag_14\n      swap2\n      swap1\n      tag_15\n      jump\t// in\n    tag_14:\n      tag_16\n      jump\t// in\n    tag_13:\n      stop\n        /* \"Campaign.sol\":893:934  mapping(address => bool) public approvers */\n    tag_3:\n      callvalue\n      dup1\n      iszero\n      tag_17\n      jumpi\n      0x00\n      dup1\n      revert\n    tag_17:\n      pop\n      tag_18\n      0x04\n      dup1\n      calldatasize\n      sub\n      dup2\n      add\n      swap1\n      tag_19\n      swap2\n      swap1\n      tag_20\n      jump\t// in\n    tag_19:\n      tag_21\n      jump\t// in\n    tag_18:\n      mload(0x40)\n      tag_22\n      swap2\n      swap1\n      tag_23\n      jump\t// in\n    tag_22:\n      mload(0x40)\n      dup1\n      swap2\n      sub\n      swap1\n      return\n        /* \"Campaign.sol\":826:848  address public manager */\n    tag_4:\n      callvalue\n      dup1\n      iszero\n      tag_24\n      jumpi\n      0x00\n      dup1\n      revert\n    tag_24:\n      pop\n      tag_25\n      tag_26\n      jump\t// in\n    tag_25:\n      mload(0x40)\n      tag_27\n      swap2\n      swap1\n      tag_28\n      jump\t// in\n    tag_27:\n      mload(0x40)\n      dup1\n      swap2\n      sub\n      swap1\n      return\n        /* \"Campaign.sol\":794:819  Request[] public requests */\n    tag_5:\n      callvalue\n      dup1\n      iszero\n      tag_29\n      jumpi\n      0x00\n      dup1\n      revert\n    tag_29:\n      pop\n      tag_30\n      0x04\n      dup1\n      calldatasize\n      sub\n      dup2\n      add\n      swap1\n      tag_31\n      swap2\n      swap1\n      tag_15\n      jump\t// in\n    tag_31:\n      tag_32\n      jump\t// in\n    tag_30:\n      mload(0x40)\n      tag_33\n      swap6\n      swap5\n      swap4\n      swap3\n      swap2\n      swap1\n      tag_34\n      jump\t// in\n    tag_33:\n      mload(0x40)\n      dup1\n      swap2\n      sub\n      swap1\n      return\n        /* \"Campaign.sol\":941:967  uint public approversCount */\n    tag_6:\n      callvalue\n      dup1\n      iszero\n      tag_35\n      jumpi\n      0x00\n      dup1\n      revert\n    tag_35:\n      pop\n      tag_36\n      tag_37\n      jump\t// in\n    tag_36:\n      mload(0x40)\n      tag_38\n      swap2\n      swap1\n      tag_39\n      jump\t// in\n    tag_38:\n      mload(0x40)\n      dup1\n      swap2\n      sub\n      swap1\n      return\n        /* \"Campaign.sol\":1302:1676  function createRequest(string memory description, uint value, address payable recipient) public restricted {... */\n    tag_7:\n      callvalue\n      dup1\n      iszero\n      tag_40\n      jumpi\n      0x00\n      dup1\n      revert\n    tag_40:\n      pop\n      tag_41\n      0x04\n      dup1\n      calldatasize\n      sub\n      dup2\n      add\n      swap1\n      tag_42\n      swap2\n      swap1\n      tag_43\n      jump\t// in\n    tag_42:\n      tag_44\n      jump\t// in\n    tag_41:\n      stop\n        /* \"Campaign.sol\":855:886  uint public minimumContribution */\n    tag_8:\n      callvalue\n      dup1\n      iszero\n      tag_45\n      jumpi\n      0x00\n      dup1\n      revert\n    tag_45:\n      pop\n      tag_46\n      tag_47\n      jump\t// in\n    tag_46:\n      mload(0x40)\n      tag_48\n      swap2\n      swap1\n      tag_39\n      jump\t// in\n    tag_48:\n      mload(0x40)\n      dup1\n      swap2\n      sub\n      swap1\n      return\n        /* \"Campaign.sol\":1132:1294  function contribute() public payable {... */\n    tag_9:\n      tag_49\n      tag_50\n      jump\t// in\n    tag_49:\n      stop\n        /* \"Campaign.sol\":1684:1972  function approveRequest(uint index) public {... */\n    tag_10:\n      callvalue\n      dup1\n      iszero\n      tag_51\n      jumpi\n      0x00\n      dup1\n      revert\n    tag_51:\n      pop\n      tag_52\n      0x04\n      dup1\n      calldatasize\n      sub\n      dup2\n      add\n      swap1\n      tag_53\n      swap2\n      swap1\n      tag_15\n      jump\t// in\n    tag_53:\n      tag_54\n      jump\t// in\n    tag_52:\n      stop\n        /* \"Campaign.sol\":1980:2273  function finalizeRequest(uint index)  public  {... */\n    tag_16:\n        /* \"Campaign.sol\":2037:2060  Request storage request */\n      0x00\n        /* \"Campaign.sol\":2063:2071  requests */\n      dup1\n        /* \"Campaign.sol\":2072:2077  index */\n      dup3\n        /* \"Campaign.sol\":2063:2078  requests[index] */\n      dup2\n      sload\n      dup2\n      lt\n      tag_56\n      jumpi\n      tag_57\n      tag_58\n      jump\t// in\n    tag_57:\n    tag_56:\n      swap1\n      0x00\n      mstore\n      keccak256(0x00, 0x20)\n      swap1\n      0x05\n      mul\n      add\n        /* \"Campaign.sol\":2037:2078  Request storage request = requests[index] */\n      swap1\n      pop\n        /* \"Campaign.sol\":2137:2138  2 */\n      0x02\n        /* \"Campaign.sol\":2122:2136  approversCount */\n      sload(0x04)\n        /* \"Campaign.sol\":2122:2138  approversCount/2 */\n      tag_60\n      swap2\n      swap1\n      tag_61\n      jump\t// in\n    tag_60:\n        /* \"Campaign.sol\":2097:2104  request */\n      dup2\n        /* \"Campaign.sol\":2097:2118  request.approvalCount */\n      0x03\n      add\n      sload\n        /* \"Campaign.sol\":2097:2139  request.approvalCount > (approversCount/2) */\n      gt\n        /* \"Campaign.sol\":2089:2140  require(request.approvalCount > (approversCount/2)) */\n      tag_62\n      jumpi\n      0x00\n      dup1\n      revert\n    tag_62:\n        /* \"Campaign.sol\":2160:2167  request */\n      dup1\n        /* \"Campaign.sol\":2160:2176  request.complete */\n      0x02\n      add\n      0x14\n      swap1\n      sload\n      swap1\n      0x0100\n      exp\n      swap1\n      div\n      0xff\n      and\n        /* \"Campaign.sol\":2159:2176  !request.complete */\n      iszero\n        /* \"Campaign.sol\":2151:2177  require(!request.complete) */\n      tag_63\n      jumpi\n      0x00\n      dup1\n      revert\n    tag_63:\n        /* \"Campaign.sol\":2190:2197  request */\n      dup1\n        /* \"Campaign.sol\":2190:2207  request.recipient */\n      0x02\n      add\n      0x00\n      swap1\n      sload\n      swap1\n      0x0100\n      exp\n      swap1\n      div\n      0xffffffffffffffffffffffffffffffffffffffff\n      and\n        /* \"Campaign.sol\":2190:2216  request.recipient.transfer */\n      0xffffffffffffffffffffffffffffffffffffffff\n      and\n        /* \"Campaign.sol\":2190:2231  request.recipient.transfer(request.value) */\n      0x08fc\n        /* \"Campaign.sol\":2217:2224  request */\n      dup3\n        /* \"Campaign.sol\":2217:2230  request.value */\n      0x01\n      add\n      sload\n        /* \"Campaign.sol\":2190:2231  request.recipient.transfer(request.value) */\n      swap1\n      dup2\n      iszero\n      mul\n      swap1\n      mload(0x40)\n      0x00\n      mload(0x40)\n      dup1\n      dup4\n      sub\n      dup2\n      dup6\n      dup9\n      dup9\n      call\n      swap4\n      pop\n      pop\n      pop\n      pop\n      iszero\n      dup1\n      iszero\n      tag_65\n      jumpi\n      returndatasize\n      0x00\n      dup1\n      returndatacopy\n      revert(0x00, returndatasize)\n    tag_65:\n      pop\n        /* \"Campaign.sol\":2261:2265  true */\n      0x01\n        /* \"Campaign.sol\":2242:2249  request */\n      dup2\n        /* \"Campaign.sol\":2242:2258  request.complete */\n      0x02\n      add\n      0x14\n        /* \"Campaign.sol\":2242:2265  request.complete = true */\n      0x0100\n      exp\n      dup2\n      sload\n      dup2\n      0xff\n      mul\n      not\n      and\n      swap1\n      dup4\n      iszero\n      iszero\n      mul\n      or\n      swap1\n      sstore\n      pop\n        /* \"Campaign.sol\":2026:2273  {... */\n      pop\n        /* \"Campaign.sol\":1980:2273  function finalizeRequest(uint index)  public  {... */\n      pop\n      jump\t// out\n        /* \"Campaign.sol\":893:934  mapping(address => bool) public approvers */\n    tag_21:\n      mstore(0x20, 0x03)\n      dup1\n      0x00\n      mstore\n      keccak256(0x00, 0x40)\n      0x00\n      swap2\n      pop\n      sload\n      swap1\n      0x0100\n      exp\n      swap1\n      div\n      0xff\n      and\n      dup2\n      jump\t// out\n        /* \"Campaign.sol\":826:848  address public manager */\n    tag_26:\n      0x01\n      0x00\n      swap1\n      sload\n      swap1\n      0x0100\n      exp\n      swap1\n      div\n      0xffffffffffffffffffffffffffffffffffffffff\n      and\n      dup2\n      jump\t// out\n        /* \"Campaign.sol\":794:819  Request[] public requests */\n    tag_32:\n      0x00\n      dup2\n      dup2\n      sload\n      dup2\n      lt\n      tag_66\n      jumpi\n      0x00\n      dup1\n      revert\n    tag_66:\n      swap1\n      0x00\n      mstore\n      keccak256(0x00, 0x20)\n      swap1\n      0x05\n      mul\n      add\n      0x00\n      swap2\n      pop\n      swap1\n      pop\n      dup1\n      0x00\n      add\n      dup1\n      sload\n      tag_68\n      swap1\n      tag_69\n      jump\t// in\n    tag_68:\n      dup1\n      0x1f\n      add\n      0x20\n      dup1\n      swap2\n      div\n      mul\n      0x20\n      add\n      mload(0x40)\n      swap1\n      dup2\n      add\n      0x40\n      mstore\n      dup1\n      swap3\n      swap2\n      swap1\n      dup2\n      dup2\n      mstore\n      0x20\n      add\n      dup3\n      dup1\n      sload\n      tag_70\n      swap1\n      tag_69\n      jump\t// in\n    tag_70:\n      dup1\n      iszero\n      tag_71\n      jumpi\n      dup1\n      0x1f\n      lt\n      tag_72\n      jumpi\n      0x0100\n      dup1\n      dup4\n      sload\n      div\n      mul\n      dup4\n      mstore\n      swap2\n      0x20\n      add\n      swap2\n      jump(tag_71)\n    tag_72:\n      dup3\n      add\n      swap2\n      swap1\n      0x00\n      mstore\n      keccak256(0x00, 0x20)\n      swap1\n    tag_73:\n      dup2\n      sload\n      dup2\n      mstore\n      swap1\n      0x01\n      add\n      swap1\n      0x20\n      add\n      dup1\n      dup4\n      gt\n      tag_73\n      jumpi\n      dup3\n      swap1\n      sub\n      0x1f\n      and\n      dup3\n      add\n      swap2\n    tag_71:\n      pop\n      pop\n      pop\n      pop\n      pop\n      swap1\n      dup1\n      0x01\n      add\n      sload\n      swap1\n      dup1\n      0x02\n      add\n      0x00\n      swap1\n      sload\n      swap1\n      0x0100\n      exp\n      swap1\n      div\n      0xffffffffffffffffffffffffffffffffffffffff\n      and\n      swap1\n      dup1\n      0x02\n      add\n      0x14\n      swap1\n      sload\n      swap1\n      0x0100\n      exp\n      swap1\n      div\n      0xff\n      and\n      swap1\n      dup1\n      0x03\n      add\n      sload\n      swap1\n      pop\n      dup6\n      jump\t// out\n        /* \"Campaign.sol\":941:967  uint public approversCount */\n    tag_37:\n      sload(0x04)\n      dup2\n      jump\t// out\n        /* \"Campaign.sol\":1302:1676  function createRequest(string memory description, uint value, address payable recipient) public restricted {... */\n    tag_44:\n        /* \"Campaign.sol\":717:724  manager */\n      0x01\n      0x00\n      swap1\n      sload\n      swap1\n      0x0100\n      exp\n      swap1\n      div\n      0xffffffffffffffffffffffffffffffffffffffff\n      and\n        /* \"Campaign.sol\":703:724  msg.sender == manager */\n      0xffffffffffffffffffffffffffffffffffffffff\n      and\n        /* \"Campaign.sol\":703:713  msg.sender */\n      caller\n        /* \"Campaign.sol\":703:724  msg.sender == manager */\n      0xffffffffffffffffffffffffffffffffffffffff\n      and\n      eq\n        /* \"Campaign.sol\":695:766  require(msg.sender == manager, \"Only the manager can make the request\") */\n      tag_75\n      jumpi\n      mload(0x40)\n      0x08c379a000000000000000000000000000000000000000000000000000000000\n      dup2\n      mstore\n      0x04\n      add\n      tag_76\n      swap1\n      tag_77\n      jump\t// in\n    tag_76:\n      mload(0x40)\n      dup1\n      swap2\n      sub\n      swap1\n      revert\n    tag_75:\n        /* \"Campaign.sol\":1422:1448  Request storage newRequest */\n      0x00\n        /* \"Campaign.sol\":1451:1459  requests */\n      dup1\n        /* \"Campaign.sol\":1451:1466  requests.push() */\n      0x01\n      dup2\n      0x01\n      dup2\n      sload\n      add\n      dup1\n      dup3\n      sstore\n      dup1\n      swap2\n      pop\n      pop\n      sub\n      swap1\n      0x00\n      mstore\n      keccak256(0x00, 0x20)\n      swap1\n      0x05\n      mul\n      add\n        /* \"Campaign.sol\":1422:1466  Request storage newRequest = requests.push() */\n      swap1\n      pop\n        /* \"Campaign.sol\":1502:1513  description */\n      dup4\n        /* \"Campaign.sol\":1477:1487  newRequest */\n      dup2\n        /* \"Campaign.sol\":1477:1499  newRequest.description */\n      0x00\n      add\n        /* \"Campaign.sol\":1477:1513  newRequest.description = description */\n      swap1\n      dup2\n      tag_80\n      swap2\n      swap1\n      tag_81\n      jump\t// in\n    tag_80:\n      pop\n        /* \"Campaign.sol\":1543:1548  value */\n      dup3\n        /* \"Campaign.sol\":1524:1534  newRequest */\n      dup2\n        /* \"Campaign.sol\":1524:1540  newRequest.value */\n      0x01\n      add\n        /* \"Campaign.sol\":1524:1548  newRequest.value = value */\n      dup2\n      swap1\n      sstore\n      pop\n        /* \"Campaign.sol\":1582:1591  recipient */\n      dup2\n        /* \"Campaign.sol\":1559:1569  newRequest */\n      dup2\n        /* \"Campaign.sol\":1559:1579  newRequest.recipient */\n      0x02\n      add\n      0x00\n        /* \"Campaign.sol\":1559:1591  newRequest.recipient = recipient */\n      0x0100\n      exp\n      dup2\n      sload\n      dup2\n      0xffffffffffffffffffffffffffffffffffffffff\n      mul\n      not\n      and\n      swap1\n      dup4\n      0xffffffffffffffffffffffffffffffffffffffff\n      and\n      mul\n      or\n      swap1\n      sstore\n      pop\n        /* \"Campaign.sol\":1624:1629  false */\n      0x00\n        /* \"Campaign.sol\":1602:1612  newRequest */\n      dup2\n        /* \"Campaign.sol\":1602:1621  newRequest.complete */\n      0x02\n      add\n      0x14\n        /* \"Campaign.sol\":1602:1629  newRequest.complete = false */\n      0x0100\n      exp\n      dup2\n      sload\n      dup2\n      0xff\n      mul\n      not\n      and\n      swap1\n      dup4\n      iszero\n      iszero\n      mul\n      or\n      swap1\n      sstore\n      pop\n        /* \"Campaign.sol\":1667:1668  0 */\n      0x00\n        /* \"Campaign.sol\":1640:1650  newRequest */\n      dup2\n        /* \"Campaign.sol\":1640:1664  newRequest.approvalCount */\n      0x03\n      add\n        /* \"Campaign.sol\":1640:1668  newRequest.approvalCount = 0 */\n      dup2\n      swap1\n      sstore\n      pop\n        /* \"Campaign.sol\":1409:1676  {... */\n      pop\n        /* \"Campaign.sol\":1302:1676  function createRequest(string memory description, uint value, address payable recipient) public restricted {... */\n      pop\n      pop\n      pop\n      jump\t// out\n        /* \"Campaign.sol\":855:886  uint public minimumContribution */\n    tag_47:\n      sload(0x02)\n      dup2\n      jump\t// out\n        /* \"Campaign.sol\":1132:1294  function contribute() public payable {... */\n    tag_50:\n        /* \"Campaign.sol\":1200:1219  minimumContribution */\n      sload(0x02)\n        /* \"Campaign.sol\":1188:1197  msg.value */\n      callvalue\n        /* \"Campaign.sol\":1188:1219  msg.value > minimumContribution */\n      gt\n        /* \"Campaign.sol\":1180:1220  require(msg.value > minimumContribution) */\n      tag_83\n      jumpi\n      0x00\n      dup1\n      revert\n    tag_83:\n        /* \"Campaign.sol\":1255:1259  true */\n      0x01\n        /* \"Campaign.sol\":1231:1240  approvers */\n      0x03\n        /* \"Campaign.sol\":1231:1252  approvers[msg.sender] */\n      0x00\n        /* \"Campaign.sol\":1241:1251  msg.sender */\n      caller\n        /* \"Campaign.sol\":1231:1252  approvers[msg.sender] */\n      0xffffffffffffffffffffffffffffffffffffffff\n      and\n      0xffffffffffffffffffffffffffffffffffffffff\n      and\n      dup2\n      mstore\n      0x20\n      add\n      swap1\n      dup2\n      mstore\n      0x20\n      add\n      0x00\n      keccak256\n      0x00\n        /* \"Campaign.sol\":1231:1259  approvers[msg.sender] = true */\n      0x0100\n      exp\n      dup2\n      sload\n      dup2\n      0xff\n      mul\n      not\n      and\n      swap1\n      dup4\n      iszero\n      iszero\n      mul\n      or\n      swap1\n      sstore\n      pop\n        /* \"Campaign.sol\":1270:1284  approversCount */\n      0x04\n      0x00\n        /* \"Campaign.sol\":1270:1286  approversCount++ */\n      dup2\n      sload\n      dup1\n      swap3\n      swap2\n      swap1\n      tag_84\n      swap1\n      tag_85\n      jump\t// in\n    tag_84:\n      swap2\n      swap1\n      pop\n      sstore\n      pop\n        /* \"Campaign.sol\":1132:1294  function contribute() public payable {... */\n      jump\t// out\n        /* \"Campaign.sol\":1684:1972  function approveRequest(uint index) public {... */\n    tag_54:\n        /* \"Campaign.sol\":1738:1761  Request storage request */\n      0x00\n        /* \"Campaign.sol\":1764:1772  requests */\n      dup1\n        /* \"Campaign.sol\":1773:1778  index */\n      dup3\n        /* \"Campaign.sol\":1764:1779  requests[index] */\n      dup2\n      sload\n      dup2\n      lt\n      tag_87\n      jumpi\n      tag_88\n      tag_58\n      jump\t// in\n    tag_88:\n    tag_87:\n      swap1\n      0x00\n      mstore\n      keccak256(0x00, 0x20)\n      swap1\n      0x05\n      mul\n      add\n        /* \"Campaign.sol\":1738:1779  Request storage request = requests[index] */\n      swap1\n      pop\n        /* \"Campaign.sol\":1800:1809  approvers */\n      0x03\n        /* \"Campaign.sol\":1800:1830  approvers[payable(msg.sender)] */\n      0x00\n        /* \"Campaign.sol\":1818:1828  msg.sender */\n      caller\n        /* \"Campaign.sol\":1800:1830  approvers[payable(msg.sender)] */\n      0xffffffffffffffffffffffffffffffffffffffff\n      and\n      0xffffffffffffffffffffffffffffffffffffffff\n      and\n      dup2\n      mstore\n      0x20\n      add\n      swap1\n      dup2\n      mstore\n      0x20\n      add\n      0x00\n      keccak256\n      0x00\n      swap1\n      sload\n      swap1\n      0x0100\n      exp\n      swap1\n      div\n      0xff\n      and\n        /* \"Campaign.sol\":1792:1831  require(approvers[payable(msg.sender)]) */\n      tag_90\n      jumpi\n      0x00\n      dup1\n      revert\n    tag_90:\n        /* \"Campaign.sol\":1851:1858  request */\n      dup1\n        /* \"Campaign.sol\":1851:1868  request.approvals */\n      0x04\n      add\n        /* \"Campaign.sol\":1851:1880  request.approvals[msg.sender] */\n      0x00\n        /* \"Campaign.sol\":1869:1879  msg.sender */\n      caller\n        /* \"Campaign.sol\":1851:1880  request.approvals[msg.sender] */\n      0xffffffffffffffffffffffffffffffffffffffff\n      and\n      0xffffffffffffffffffffffffffffffffffffffff\n      and\n      dup2\n      mstore\n      0x20\n      add\n      swap1\n      dup2\n      mstore\n      0x20\n      add\n      0x00\n      keccak256\n      0x00\n      swap1\n      sload\n      swap1\n      0x0100\n      exp\n      swap1\n      div\n      0xff\n      and\n        /* \"Campaign.sol\":1850:1880  !request.approvals[msg.sender] */\n      iszero\n        /* \"Campaign.sol\":1842:1881  require(!request.approvals[msg.sender]) */\n      tag_91\n      jumpi\n      0x00\n      dup1\n      revert\n    tag_91:\n        /* \"Campaign.sol\":1926:1930  true */\n      0x01\n        /* \"Campaign.sol\":1894:1901  request */\n      dup2\n        /* \"Campaign.sol\":1894:1911  request.approvals */\n      0x04\n      add\n        /* \"Campaign.sol\":1894:1923  request.approvals[msg.sender] */\n      0x00\n        /* \"Campaign.sol\":1912:1922  msg.sender */\n      caller\n        /* \"Campaign.sol\":1894:1923  request.approvals[msg.sender] */\n      0xffffffffffffffffffffffffffffffffffffffff\n      and\n      0xffffffffffffffffffffffffffffffffffffffff\n      and\n      dup2\n      mstore\n      0x20\n      add\n      swap1\n      dup2\n      mstore\n      0x20\n      add\n      0x00\n      keccak256\n      0x00\n        /* \"Campaign.sol\":1894:1930  request.approvals[msg.sender] = true */\n      0x0100\n      exp\n      dup2\n      sload\n      dup2\n      0xff\n      mul\n      not\n      and\n      swap1\n      dup4\n      iszero\n      iszero\n      mul\n      or\n      swap1\n      sstore\n      pop\n        /* \"Campaign.sol\":1941:1948  request */\n      dup1\n        /* \"Campaign.sol\":1941:1962  request.approvalCount */\n      0x03\n      add\n      0x00\n        /* \"Campaign.sol\":1941:1964  request.approvalCount++ */\n      dup2\n      sload\n      dup1\n      swap3\n      swap2\n      swap1\n      tag_92\n      swap1\n      tag_85\n      jump\t// in\n    tag_92:\n      swap2\n      swap1\n      pop\n      sstore\n      pop\n        /* \"Campaign.sol\":1727:1972  {... */\n      pop\n        /* \"Campaign.sol\":1684:1972  function approveRequest(uint index) public {... */\n      pop\n      jump\t// out\n        /* \"#utility.yul\":7:82   */\n    tag_93:\n        /* \"#utility.yul\":40:46   */\n      0x00\n        /* \"#utility.yul\":73:75   */\n      0x40\n        /* \"#utility.yul\":67:76   */\n      mload\n        /* \"#utility.yul\":57:76   */\n      swap1\n      pop\n        /* \"#utility.yul\":7:82   */\n      swap1\n      jump\t// out\n        /* \"#utility.yul\":88:205   */\n    tag_94:\n        /* \"#utility.yul\":197:198   */\n      0x00\n        /* \"#utility.yul\":194:195   */\n      dup1\n        /* \"#utility.yul\":187:199   */\n      revert\n        /* \"#utility.yul\":211:328   */\n    tag_95:\n        /* \"#utility.yul\":320:321   */\n      0x00\n        /* \"#utility.yul\":317:318   */\n      dup1\n        /* \"#utility.yul\":310:322   */\n      revert\n        /* \"#utility.yul\":334:411   */\n    tag_96:\n        /* \"#utility.yul\":371:378   */\n      0x00\n        /* \"#utility.yul\":400:405   */\n      dup2\n        /* \"#utility.yul\":389:405   */\n      swap1\n      pop\n        /* \"#utility.yul\":334:411   */\n      swap2\n      swap1\n      pop\n      jump\t// out\n        /* \"#utility.yul\":417:539   */\n    tag_97:\n        /* \"#utility.yul\":490:514   */\n      tag_151\n        /* \"#utility.yul\":508:513   */\n      dup2\n        /* \"#utility.yul\":490:514   */\n      tag_96\n      jump\t// in\n    tag_151:\n        /* \"#utility.yul\":483:488   */\n      dup2\n        /* \"#utility.yul\":480:515   */\n      eq\n        /* \"#utility.yul\":470:533   */\n      tag_152\n      jumpi\n        /* \"#utility.yul\":529:530   */\n      0x00\n        /* \"#utility.yul\":526:527   */\n      dup1\n        /* \"#utility.yul\":519:531   */\n      revert\n        /* \"#utility.yul\":470:533   */\n    tag_152:\n        /* \"#utility.yul\":417:539   */\n      pop\n      jump\t// out\n        /* \"#utility.yul\":545:684   */\n    tag_98:\n        /* \"#utility.yul\":591:596   */\n      0x00\n        /* \"#utility.yul\":629:635   */\n      dup2\n        /* \"#utility.yul\":616:636   */\n      calldataload\n        /* \"#utility.yul\":607:636   */\n      swap1\n      pop\n        /* \"#utility.yul\":645:678   */\n      tag_154\n        /* \"#utility.yul\":672:677   */\n      dup2\n        /* \"#utility.yul\":645:678   */\n      tag_97\n      jump\t// in\n    tag_154:\n        /* \"#utility.yul\":545:684   */\n      swap3\n      swap2\n      pop\n      pop\n      jump\t// out\n        /* \"#utility.yul\":690:1019   */\n    tag_15:\n        /* \"#utility.yul\":749:755   */\n      0x00\n        /* \"#utility.yul\":798:800   */\n      0x20\n        /* \"#utility.yul\":786:795   */\n      dup3\n        /* \"#utility.yul\":777:784   */\n      dup5\n        /* \"#utility.yul\":773:796   */\n      sub\n        /* \"#utility.yul\":769:801   */\n      slt\n        /* \"#utility.yul\":766:885   */\n      iszero\n      tag_156\n      jumpi\n        /* \"#utility.yul\":804:883   */\n      tag_157\n      tag_94\n      jump\t// in\n    tag_157:\n        /* \"#utility.yul\":766:885   */\n    tag_156:\n        /* \"#utility.yul\":924:925   */\n      0x00\n        /* \"#utility.yul\":949:1002   */\n      tag_158\n        /* \"#utility.yul\":994:1001   */\n      dup5\n        /* \"#utility.yul\":985:991   */\n      dup3\n        /* \"#utility.yul\":974:983   */\n      dup6\n        /* \"#utility.yul\":970:992   */\n      add\n        /* \"#utility.yul\":949:1002   */\n      tag_98\n      jump\t// in\n    tag_158:\n        /* \"#utility.yul\":939:1002   */\n      swap2\n      pop\n        /* \"#utility.yul\":895:1012   */\n      pop\n        /* \"#utility.yul\":690:1019   */\n      swap3\n      swap2\n      pop\n      pop\n      jump\t// out\n        /* \"#utility.yul\":1025:1151   */\n    tag_99:\n        /* \"#utility.yul\":1062:1069   */\n      0x00\n        /* \"#utility.yul\":1102:1144   */\n      0xffffffffffffffffffffffffffffffffffffffff\n        /* \"#utility.yul\":1095:1100   */\n      dup3\n        /* \"#utility.yul\":1091:1145   */\n      and\n        /* \"#utility.yul\":1080:1145   */\n      swap1\n      pop\n        /* \"#utility.yul\":1025:1151   */\n      swap2\n      swap1\n      pop\n      jump\t// out\n        /* \"#utility.yul\":1157:1253   */\n    tag_100:\n        /* \"#utility.yul\":1194:1201   */\n      0x00\n        /* \"#utility.yul\":1223:1247   */\n      tag_161\n        /* \"#utility.yul\":1241:1246   */\n      dup3\n        /* \"#utility.yul\":1223:1247   */\n      tag_99\n      jump\t// in\n    tag_161:\n        /* \"#utility.yul\":1212:1247   */\n      swap1\n      pop\n        /* \"#utility.yul\":1157:1253   */\n      swap2\n      swap1\n      pop\n      jump\t// out\n        /* \"#utility.yul\":1259:1381   */\n    tag_101:\n        /* \"#utility.yul\":1332:1356   */\n      tag_163\n        /* \"#utility.yul\":1350:1355   */\n      dup2\n        /* \"#utility.yul\":1332:1356   */\n      tag_100\n      jump\t// in\n    tag_163:\n        /* \"#utility.yul\":1325:1330   */\n      dup2\n        /* \"#utility.yul\":1322:1357   */\n      eq\n        /* \"#utility.yul\":1312:1375   */\n      tag_164\n      jumpi\n        /* \"#utility.yul\":1371:1372   */\n      0x00\n        /* \"#utility.yul\":1368:1369   */\n      dup1\n        /* \"#utility.yul\":1361:1373   */\n      revert\n        /* \"#utility.yul\":1312:1375   */\n    tag_164:\n        /* \"#utility.yul\":1259:1381   */\n      pop\n      jump\t// out\n        /* \"#utility.yul\":1387:1526   */\n    tag_102:\n        /* \"#utility.yul\":1433:1438   */\n      0x00\n        /* \"#utility.yul\":1471:1477   */\n      dup2\n        /* \"#utility.yul\":1458:1478   */\n      calldataload\n        /* \"#utility.yul\":1449:1478   */\n      swap1\n      pop\n        /* \"#utility.yul\":1487:1520   */\n      tag_166\n        /* \"#utility.yul\":1514:1519   */\n      dup2\n        /* \"#utility.yul\":1487:1520   */\n      tag_101\n      jump\t// in\n    tag_166:\n        /* \"#utility.yul\":1387:1526   */\n      swap3\n      swap2\n      pop\n      pop\n      jump\t// out\n        /* \"#utility.yul\":1532:1861   */\n    tag_20:\n        /* \"#utility.yul\":1591:1597   */\n      0x00\n        /* \"#utility.yul\":1640:1642   */\n      0x20\n        /* \"#utility.yul\":1628:1637   */\n      dup3\n        /* \"#utility.yul\":1619:1626   */\n      dup5\n        /* \"#utility.yul\":1615:1638   */\n      sub\n        /* \"#utility.yul\":1611:1643   */\n      slt\n        /* \"#utility.yul\":1608:1727   */\n      iszero\n      tag_168\n      jumpi\n        /* \"#utility.yul\":1646:1725   */\n      tag_169\n      tag_94\n      jump\t// in\n    tag_169:\n        /* \"#utility.yul\":1608:1727   */\n    tag_168:\n        /* \"#utility.yul\":1766:1767   */\n      0x00\n        /* \"#utility.yul\":1791:1844   */\n      tag_170\n        /* \"#utility.yul\":1836:1843   */\n      dup5\n        /* \"#utility.yul\":1827:1833   */\n      dup3\n        /* \"#utility.yul\":1816:1825   */\n      dup6\n        /* \"#utility.yul\":1812:1834   */\n      add\n        /* \"#utility.yul\":1791:1844   */\n      tag_102\n      jump\t// in\n    tag_170:\n        /* \"#utility.yul\":1781:1844   */\n      swap2\n      pop\n        /* \"#utility.yul\":1737:1854   */\n      pop\n        /* \"#utility.yul\":1532:1861   */\n      swap3\n      swap2\n      pop\n      pop\n      jump\t// out\n        /* \"#utility.yul\":1867:1957   */\n    tag_103:\n        /* \"#utility.yul\":1901:1908   */\n      0x00\n        /* \"#utility.yul\":1944:1949   */\n      dup2\n        /* \"#utility.yul\":1937:1950   */\n      iszero\n        /* \"#utility.yul\":1930:1951   */\n      iszero\n        /* \"#utility.yul\":1919:1951   */\n      swap1\n      pop\n        /* \"#utility.yul\":1867:1957   */\n      swap2\n      swap1\n      pop\n      jump\t// out\n        /* \"#utility.yul\":1963:2072   */\n    tag_104:\n        /* \"#utility.yul\":2044:2065   */\n      tag_173\n        /* \"#utility.yul\":2059:2064   */\n      dup2\n        /* \"#utility.yul\":2044:2065   */\n      tag_103\n      jump\t// in\n    tag_173:\n        /* \"#utility.yul\":2039:2042   */\n      dup3\n        /* \"#utility.yul\":2032:2066   */\n      mstore\n        /* \"#utility.yul\":1963:2072   */\n      pop\n      pop\n      jump\t// out\n        /* \"#utility.yul\":2078:2288   */\n    tag_23:\n        /* \"#utility.yul\":2165:2169   */\n      0x00\n        /* \"#utility.yul\":2203:2205   */\n      0x20\n        /* \"#utility.yul\":2192:2201   */\n      dup3\n        /* \"#utility.yul\":2188:2206   */\n      add\n        /* \"#utility.yul\":2180:2206   */\n      swap1\n      pop\n        /* \"#utility.yul\":2216:2281   */\n      tag_175\n        /* \"#utility.yul\":2278:2279   */\n      0x00\n        /* \"#utility.yul\":2267:2276   */\n      dup4\n        /* \"#utility.yul\":2263:2280   */\n      add\n        /* \"#utility.yul\":2254:2260   */\n      dup5\n        /* \"#utility.yul\":2216:2281   */\n      tag_104\n      jump\t// in\n    tag_175:\n        /* \"#utility.yul\":2078:2288   */\n      swap3\n      swap2\n      pop\n      pop\n      jump\t// out\n        /* \"#utility.yul\":2294:2412   */\n    tag_105:\n        /* \"#utility.yul\":2381:2405   */\n      tag_177\n        /* \"#utility.yul\":2399:2404   */\n      dup2\n        /* \"#utility.yul\":2381:2405   */\n      tag_100\n      jump\t// in\n    tag_177:\n        /* \"#utility.yul\":2376:2379   */\n      dup3\n        /* \"#utility.yul\":2369:2406   */\n      mstore\n        /* \"#utility.yul\":2294:2412   */\n      pop\n      pop\n      jump\t// out\n        /* \"#utility.yul\":2418:2640   */\n    tag_28:\n        /* \"#utility.yul\":2511:2515   */\n      0x00\n        /* \"#utility.yul\":2549:2551   */\n      0x20\n        /* \"#utility.yul\":2538:2547   */\n      dup3\n        /* \"#utility.yul\":2534:2552   */\n      add\n        /* \"#utility.yul\":2526:2552   */\n      swap1\n      pop\n        /* \"#utility.yul\":2562:2633   */\n      tag_179\n        /* \"#utility.yul\":2630:2631   */\n      0x00\n        /* \"#utility.yul\":2619:2628   */\n      dup4\n        /* \"#utility.yul\":2615:2632   */\n      add\n        /* \"#utility.yul\":2606:2612   */\n      dup5\n        /* \"#utility.yul\":2562:2633   */\n      tag_105\n      jump\t// in\n    tag_179:\n        /* \"#utility.yul\":2418:2640   */\n      swap3\n      swap2\n      pop\n      pop\n      jump\t// out\n        /* \"#utility.yul\":2646:2745   */\n    tag_106:\n        /* \"#utility.yul\":2698:2704   */\n      0x00\n        /* \"#utility.yul\":2732:2737   */\n      dup2\n        /* \"#utility.yul\":2726:2738   */\n      mload\n        /* \"#utility.yul\":2716:2738   */\n      swap1\n      pop\n        /* \"#utility.yul\":2646:2745   */\n      swap2\n      swap1\n      pop\n      jump\t// out\n        /* \"#utility.yul\":2751:2920   */\n    tag_107:\n        /* \"#utility.yul\":2835:2846   */\n      0x00\n        /* \"#utility.yul\":2869:2875   */\n      dup3\n        /* \"#utility.yul\":2864:2867   */\n      dup3\n        /* \"#utility.yul\":2857:2876   */\n      mstore\n        /* \"#utility.yul\":2909:2913   */\n      0x20\n        /* \"#utility.yul\":2904:2907   */\n      dup3\n        /* \"#utility.yul\":2900:2914   */\n      add\n        /* \"#utility.yul\":2885:2914   */\n      swap1\n      pop\n        /* \"#utility.yul\":2751:2920   */\n      swap3\n      swap2\n      pop\n      pop\n      jump\t// out\n        /* \"#utility.yul\":2926:3172   */\n    tag_108:\n        /* \"#utility.yul\":3007:3008   */\n      0x00\n        /* \"#utility.yul\":3017:3130   */\n    tag_183:\n        /* \"#utility.yul\":3031:3037   */\n      dup4\n        /* \"#utility.yul\":3028:3029   */\n      dup2\n        /* \"#utility.yul\":3025:3038   */\n      lt\n        /* \"#utility.yul\":3017:3130   */\n      iszero\n      tag_185\n      jumpi\n        /* \"#utility.yul\":3116:3117   */\n      dup1\n        /* \"#utility.yul\":3111:3114   */\n      dup3\n        /* \"#utility.yul\":3107:3118   */\n      add\n        /* \"#utility.yul\":3101:3119   */\n      mload\n        /* \"#utility.yul\":3097:3098   */\n      dup2\n        /* \"#utility.yul\":3092:3095   */\n      dup5\n        /* \"#utility.yul\":3088:3099   */\n      add\n        /* \"#utility.yul\":3081:3120   */\n      mstore\n        /* \"#utility.yul\":3053:3055   */\n      0x20\n        /* \"#utility.yul\":3050:3051   */\n      dup2\n        /* \"#utility.yul\":3046:3056   */\n      add\n        /* \"#utility.yul\":3041:3056   */\n      swap1\n      pop\n        /* \"#utility.yul\":3017:3130   */\n      jump(tag_183)\n    tag_185:\n        /* \"#utility.yul\":3164:3165   */\n      0x00\n        /* \"#utility.yul\":3155:3161   */\n      dup5\n        /* \"#utility.yul\":3150:3153   */\n      dup5\n        /* \"#utility.yul\":3146:3162   */\n      add\n        /* \"#utility.yul\":3139:3166   */\n      mstore\n        /* \"#utility.yul\":2988:3172   */\n      pop\n        /* \"#utility.yul\":2926:3172   */\n      pop\n      pop\n      pop\n      jump\t// out\n        /* \"#utility.yul\":3178:3280   */\n    tag_109:\n        /* \"#utility.yul\":3219:3225   */\n      0x00\n        /* \"#utility.yul\":3270:3272   */\n      0x1f\n        /* \"#utility.yul\":3266:3273   */\n      not\n        /* \"#utility.yul\":3261:3263   */\n      0x1f\n        /* \"#utility.yul\":3254:3259   */\n      dup4\n        /* \"#utility.yul\":3250:3264   */\n      add\n        /* \"#utility.yul\":3246:3274   */\n      and\n        /* \"#utility.yul\":3236:3274   */\n      swap1\n      pop\n        /* \"#utility.yul\":3178:3280   */\n      swap2\n      swap1\n      pop\n      jump\t// out\n        /* \"#utility.yul\":3286:3663   */\n    tag_110:\n        /* \"#utility.yul\":3374:3377   */\n      0x00\n        /* \"#utility.yul\":3402:3441   */\n      tag_188\n        /* \"#utility.yul\":3435:3440   */\n      dup3\n        /* \"#utility.yul\":3402:3441   */\n      tag_106\n      jump\t// in\n    tag_188:\n        /* \"#utility.yul\":3457:3528   */\n      tag_189\n        /* \"#utility.yul\":3521:3527   */\n      dup2\n        /* \"#utility.yul\":3516:3519   */\n      dup6\n        /* \"#utility.yul\":3457:3528   */\n      tag_107\n      jump\t// in\n    tag_189:\n        /* \"#utility.yul\":3450:3528   */\n      swap4\n      pop\n        /* \"#utility.yul\":3537:3602   */\n      tag_190\n        /* \"#utility.yul\":3595:3601   */\n      dup2\n        /* \"#utility.yul\":3590:3593   */\n      dup6\n        /* \"#utility.yul\":3583:3587   */\n      0x20\n        /* \"#utility.yul\":3576:3581   */\n      dup7\n        /* \"#utility.yul\":3572:3588   */\n      add\n        /* \"#utility.yul\":3537:3602   */\n      tag_108\n      jump\t// in\n    tag_190:\n        /* \"#utility.yul\":3627:3656   */\n      tag_191\n        /* \"#utility.yul\":3649:3655   */\n      dup2\n        /* \"#utility.yul\":3627:3656   */\n      tag_109\n      jump\t// in\n    tag_191:\n        /* \"#utility.yul\":3622:3625   */\n      dup5\n        /* \"#utility.yul\":3618:3657   */\n      add\n        /* \"#utility.yul\":3611:3657   */\n      swap2\n      pop\n        /* \"#utility.yul\":3378:3663   */\n      pop\n        /* \"#utility.yul\":3286:3663   */\n      swap3\n      swap2\n      pop\n      pop\n      jump\t// out\n        /* \"#utility.yul\":3669:3787   */\n    tag_111:\n        /* \"#utility.yul\":3756:3780   */\n      tag_193\n        /* \"#utility.yul\":3774:3779   */\n      dup2\n        /* \"#utility.yul\":3756:3780   */\n      tag_96\n      jump\t// in\n    tag_193:\n        /* \"#utility.yul\":3751:3754   */\n      dup3\n        /* \"#utility.yul\":3744:3781   */\n      mstore\n        /* \"#utility.yul\":3669:3787   */\n      pop\n      pop\n      jump\t// out\n        /* \"#utility.yul\":3793:3897   */\n    tag_112:\n        /* \"#utility.yul\":3838:3845   */\n      0x00\n        /* \"#utility.yul\":3867:3891   */\n      tag_195\n        /* \"#utility.yul\":3885:3890   */\n      dup3\n        /* \"#utility.yul\":3867:3891   */\n      tag_99\n      jump\t// in\n    tag_195:\n        /* \"#utility.yul\":3856:3891   */\n      swap1\n      pop\n        /* \"#utility.yul\":3793:3897   */\n      swap2\n      swap1\n      pop\n      jump\t// out\n        /* \"#utility.yul\":3903:4045   */\n    tag_113:\n        /* \"#utility.yul\":4006:4038   */\n      tag_197\n        /* \"#utility.yul\":4032:4037   */\n      dup2\n        /* \"#utility.yul\":4006:4038   */\n      tag_112\n      jump\t// in\n    tag_197:\n        /* \"#utility.yul\":4001:4004   */\n      dup3\n        /* \"#utility.yul\":3994:4039   */\n      mstore\n        /* \"#utility.yul\":3903:4045   */\n      pop\n      pop\n      jump\t// out\n        /* \"#utility.yul\":4051:4826   */\n    tag_34:\n        /* \"#utility.yul\":4286:4290   */\n      0x00\n        /* \"#utility.yul\":4324:4327   */\n      0xa0\n        /* \"#utility.yul\":4313:4322   */\n      dup3\n        /* \"#utility.yul\":4309:4328   */\n      add\n        /* \"#utility.yul\":4301:4328   */\n      swap1\n      pop\n        /* \"#utility.yul\":4374:4383   */\n      dup2\n        /* \"#utility.yul\":4368:4372   */\n      dup2\n        /* \"#utility.yul\":4364:4384   */\n      sub\n        /* \"#utility.yul\":4360:4361   */\n      0x00\n        /* \"#utility.yul\":4349:4358   */\n      dup4\n        /* \"#utility.yul\":4345:4362   */\n      add\n        /* \"#utility.yul\":4338:4385   */\n      mstore\n        /* \"#utility.yul\":4402:4480   */\n      tag_199\n        /* \"#utility.yul\":4475:4479   */\n      dup2\n        /* \"#utility.yul\":4466:4472   */\n      dup9\n        /* \"#utility.yul\":4402:4480   */\n      tag_110\n      jump\t// in\n    tag_199:\n        /* \"#utility.yul\":4394:4480   */\n      swap1\n      pop\n        /* \"#utility.yul\":4490:4562   */\n      tag_200\n        /* \"#utility.yul\":4558:4560   */\n      0x20\n        /* \"#utility.yul\":4547:4556   */\n      dup4\n        /* \"#utility.yul\":4543:4561   */\n      add\n        /* \"#utility.yul\":4534:4540   */\n      dup8\n        /* \"#utility.yul\":4490:4562   */\n      tag_111\n      jump\t// in\n    tag_200:\n        /* \"#utility.yul\":4572:4660   */\n      tag_201\n        /* \"#utility.yul\":4656:4658   */\n      0x40\n        /* \"#utility.yul\":4645:4654   */\n      dup4\n        /* \"#utility.yul\":4641:4659   */\n      add\n        /* \"#utility.yul\":4632:4638   */\n      dup7\n        /* \"#utility.yul\":4572:4660   */\n      tag_113\n      jump\t// in\n    tag_201:\n        /* \"#utility.yul\":4670:4736   */\n      tag_202\n        /* \"#utility.yul\":4732:4734   */\n      0x60\n        /* \"#utility.yul\":4721:4730   */\n      dup4\n        /* \"#utility.yul\":4717:4735   */\n      add\n        /* \"#utility.yul\":4708:4714   */\n      dup6\n        /* \"#utility.yul\":4670:4736   */\n      tag_104\n      jump\t// in\n    tag_202:\n        /* \"#utility.yul\":4746:4819   */\n      tag_203\n        /* \"#utility.yul\":4814:4817   */\n      0x80\n        /* \"#utility.yul\":4803:4812   */\n      dup4\n        /* \"#utility.yul\":4799:4818   */\n      add\n        /* \"#utility.yul\":4790:4796   */\n      dup5\n        /* \"#utility.yul\":4746:4819   */\n      tag_111\n      jump\t// in\n    tag_203:\n        /* \"#utility.yul\":4051:4826   */\n      swap7\n      swap6\n      pop\n      pop\n      pop\n      pop\n      pop\n      pop\n      jump\t// out\n        /* \"#utility.yul\":4832:5054   */\n    tag_39:\n        /* \"#utility.yul\":4925:4929   */\n      0x00\n        /* \"#utility.yul\":4963:4965   */\n      0x20\n        /* \"#utility.yul\":4952:4961   */\n      dup3\n        /* \"#utility.yul\":4948:4966   */\n      add\n        /* \"#utility.yul\":4940:4966   */\n      swap1\n      pop\n        /* \"#utility.yul\":4976:5047   */\n      tag_205\n        /* \"#utility.yul\":5044:5045   */\n      0x00\n        /* \"#utility.yul\":5033:5042   */\n      dup4\n        /* \"#utility.yul\":5029:5046   */\n      add\n        /* \"#utility.yul\":5020:5026   */\n      dup5\n        /* \"#utility.yul\":4976:5047   */\n      tag_111\n      jump\t// in\n    tag_205:\n        /* \"#utility.yul\":4832:5054   */\n      swap3\n      swap2\n      pop\n      pop\n      jump\t// out\n        /* \"#utility.yul\":5060:5177   */\n    tag_114:\n        /* \"#utility.yul\":5169:5170   */\n      0x00\n        /* \"#utility.yul\":5166:5167   */\n      dup1\n        /* \"#utility.yul\":5159:5171   */\n      revert\n        /* \"#utility.yul\":5183:5300   */\n    tag_115:\n        /* \"#utility.yul\":5292:5293   */\n      0x00\n        /* \"#utility.yul\":5289:5290   */\n      dup1\n        /* \"#utility.yul\":5282:5294   */\n      revert\n        /* \"#utility.yul\":5306:5486   */\n    tag_116:\n        /* \"#utility.yul\":5354:5431   */\n      0x4e487b7100000000000000000000000000000000000000000000000000000000\n        /* \"#utility.yul\":5351:5352   */\n      0x00\n        /* \"#utility.yul\":5344:5432   */\n      mstore\n        /* \"#utility.yul\":5451:5455   */\n      0x41\n        /* \"#utility.yul\":5448:5449   */\n      0x04\n        /* \"#utility.yul\":5441:5456   */\n      mstore\n        /* \"#utility.yul\":5475:5479   */\n      0x24\n        /* \"#utility.yul\":5472:5473   */\n      0x00\n        /* \"#utility.yul\":5465:5480   */\n      revert\n        /* \"#utility.yul\":5492:5773   */\n    tag_117:\n        /* \"#utility.yul\":5575:5602   */\n      tag_210\n        /* \"#utility.yul\":5597:5601   */\n      dup3\n        /* \"#utility.yul\":5575:5602   */\n      tag_109\n      jump\t// in\n    tag_210:\n        /* \"#utility.yul\":5567:5573   */\n      dup2\n        /* \"#utility.yul\":5563:5603   */\n      add\n        /* \"#utility.yul\":5705:5711   */\n      dup2\n        /* \"#utility.yul\":5693:5703   */\n      dup2\n        /* \"#utility.yul\":5690:5712   */\n      lt\n        /* \"#utility.yul\":5669:5687   */\n      0xffffffffffffffff\n        /* \"#utility.yul\":5657:5667   */\n      dup3\n        /* \"#utility.yul\":5654:5688   */\n      gt\n        /* \"#utility.yul\":5651:5713   */\n      or\n        /* \"#utility.yul\":5648:5736   */\n      iszero\n      tag_211\n      jumpi\n        /* \"#utility.yul\":5716:5734   */\n      tag_212\n      tag_116\n      jump\t// in\n    tag_212:\n        /* \"#utility.yul\":5648:5736   */\n    tag_211:\n        /* \"#utility.yul\":5756:5766   */\n      dup1\n        /* \"#utility.yul\":5752:5754   */\n      0x40\n        /* \"#utility.yul\":5745:5767   */\n      mstore\n        /* \"#utility.yul\":5535:5773   */\n      pop\n        /* \"#utility.yul\":5492:5773   */\n      pop\n      pop\n      jump\t// out\n        /* \"#utility.yul\":5779:5908   */\n    tag_118:\n        /* \"#utility.yul\":5813:5819   */\n      0x00\n        /* \"#utility.yul\":5840:5860   */\n      tag_214\n      tag_93\n      jump\t// in\n    tag_214:\n        /* \"#utility.yul\":5830:5860   */\n      swap1\n      pop\n        /* \"#utility.yul\":5869:5902   */\n      tag_215\n        /* \"#utility.yul\":5897:5901   */\n      dup3\n        /* \"#utility.yul\":5889:5895   */\n      dup3\n        /* \"#utility.yul\":5869:5902   */\n      tag_117\n      jump\t// in\n    tag_215:\n        /* \"#utility.yul\":5779:5908   */\n      swap2\n      swap1\n      pop\n      jump\t// out\n        /* \"#utility.yul\":5914:6222   */\n    tag_119:\n        /* \"#utility.yul\":5976:5980   */\n      0x00\n        /* \"#utility.yul\":6066:6084   */\n      0xffffffffffffffff\n        /* \"#utility.yul\":6058:6064   */\n      dup3\n        /* \"#utility.yul\":6055:6085   */\n      gt\n        /* \"#utility.yul\":6052:6108   */\n      iszero\n      tag_217\n      jumpi\n        /* \"#utility.yul\":6088:6106   */\n      tag_218\n      tag_116\n      jump\t// in\n    tag_218:\n        /* \"#utility.yul\":6052:6108   */\n    tag_217:\n        /* \"#utility.yul\":6126:6155   */\n      tag_219\n        /* \"#utility.yul\":6148:6154   */\n      dup3\n        /* \"#utility.yul\":6126:6155   */\n      tag_109\n      jump\t// in\n    tag_219:\n        /* \"#utility.yul\":6118:6155   */\n      swap1\n      pop\n        /* \"#utility.yul\":6210:6214   */\n      0x20\n        /* \"#utility.yul\":6204:6208   */\n      dup2\n        /* \"#utility.yul\":6200:6215   */\n      add\n        /* \"#utility.yul\":6192:6215   */\n      swap1\n      pop\n        /* \"#utility.yul\":5914:6222   */\n      swap2\n      swap1\n      pop\n      jump\t// out\n        /* \"#utility.yul\":6228:6374   */\n    tag_120:\n        /* \"#utility.yul\":6325:6331   */\n      dup3\n        /* \"#utility.yul\":6320:6323   */\n      dup2\n        /* \"#utility.yul\":6315:6318   */\n      dup4\n        /* \"#utility.yul\":6302:6332   */\n      calldatacopy\n        /* \"#utility.yul\":6366:6367   */\n      0x00\n        /* \"#utility.yul\":6357:6363   */\n      dup4\n        /* \"#utility.yul\":6352:6355   */\n      dup4\n        /* \"#utility.yul\":6348:6364   */\n      add\n        /* \"#utility.yul\":6341:6368   */\n      mstore\n        /* \"#utility.yul\":6228:6374   */\n      pop\n      pop\n      pop\n      jump\t// out\n        /* \"#utility.yul\":6380:6805   */\n    tag_121:\n        /* \"#utility.yul\":6458:6463   */\n      0x00\n        /* \"#utility.yul\":6483:6549   */\n      tag_222\n        /* \"#utility.yul\":6499:6548   */\n      tag_223\n        /* \"#utility.yul\":6541:6547   */\n      dup5\n        /* \"#utility.yul\":6499:6548   */\n      tag_119\n      jump\t// in\n    tag_223:\n        /* \"#utility.yul\":6483:6549   */\n      tag_118\n      jump\t// in\n    tag_222:\n        /* \"#utility.yul\":6474:6549   */\n      swap1\n      pop\n        /* \"#utility.yul\":6572:6578   */\n      dup3\n        /* \"#utility.yul\":6565:6570   */\n      dup2\n        /* \"#utility.yul\":6558:6579   */\n      mstore\n        /* \"#utility.yul\":6610:6614   */\n      0x20\n        /* \"#utility.yul\":6603:6608   */\n      dup2\n        /* \"#utility.yul\":6599:6615   */\n      add\n        /* \"#utility.yul\":6648:6651   */\n      dup5\n        /* \"#utility.yul\":6639:6645   */\n      dup5\n        /* \"#utility.yul\":6634:6637   */\n      dup5\n        /* \"#utility.yul\":6630:6646   */\n      add\n        /* \"#utility.yul\":6627:6652   */\n      gt\n        /* \"#utility.yul\":6624:6736   */\n      iszero\n      tag_224\n      jumpi\n        /* \"#utility.yul\":6655:6734   */\n      tag_225\n      tag_115\n      jump\t// in\n    tag_225:\n        /* \"#utility.yul\":6624:6736   */\n    tag_224:\n        /* \"#utility.yul\":6745:6799   */\n      tag_226\n        /* \"#utility.yul\":6792:6798   */\n      dup5\n        /* \"#utility.yul\":6787:6790   */\n      dup3\n        /* \"#utility.yul\":6782:6785   */\n      dup6\n        /* \"#utility.yul\":6745:6799   */\n      tag_120\n      jump\t// in\n    tag_226:\n        /* \"#utility.yul\":6464:6805   */\n      pop\n        /* \"#utility.yul\":6380:6805   */\n      swap4\n      swap3\n      pop\n      pop\n      pop\n      jump\t// out\n        /* \"#utility.yul\":6825:7165   */\n    tag_122:\n        /* \"#utility.yul\":6881:6886   */\n      0x00\n        /* \"#utility.yul\":6930:6933   */\n      dup3\n        /* \"#utility.yul\":6923:6927   */\n      0x1f\n        /* \"#utility.yul\":6915:6921   */\n      dup4\n        /* \"#utility.yul\":6911:6928   */\n      add\n        /* \"#utility.yul\":6907:6934   */\n      slt\n        /* \"#utility.yul\":6897:7019   */\n      tag_228\n      jumpi\n        /* \"#utility.yul\":6938:7017   */\n      tag_229\n      tag_114\n      jump\t// in\n    tag_229:\n        /* \"#utility.yul\":6897:7019   */\n    tag_228:\n        /* \"#utility.yul\":7055:7061   */\n      dup2\n        /* \"#utility.yul\":7042:7062   */\n      calldataload\n        /* \"#utility.yul\":7080:7159   */\n      tag_230\n        /* \"#utility.yul\":7155:7158   */\n      dup5\n        /* \"#utility.yul\":7147:7153   */\n      dup3\n        /* \"#utility.yul\":7140:7144   */\n      0x20\n        /* \"#utility.yul\":7132:7138   */\n      dup7\n        /* \"#utility.yul\":7128:7145   */\n      add\n        /* \"#utility.yul\":7080:7159   */\n      tag_121\n      jump\t// in\n    tag_230:\n        /* \"#utility.yul\":7071:7159   */\n      swap2\n      pop\n        /* \"#utility.yul\":6887:7165   */\n      pop\n        /* \"#utility.yul\":6825:7165   */\n      swap3\n      swap2\n      pop\n      pop\n      jump\t// out\n        /* \"#utility.yul\":7171:7309   */\n    tag_123:\n        /* \"#utility.yul\":7252:7284   */\n      tag_232\n        /* \"#utility.yul\":7278:7283   */\n      dup2\n        /* \"#utility.yul\":7252:7284   */\n      tag_112\n      jump\t// in\n    tag_232:\n        /* \"#utility.yul\":7245:7250   */\n      dup2\n        /* \"#utility.yul\":7242:7285   */\n      eq\n        /* \"#utility.yul\":7232:7303   */\n      tag_233\n      jumpi\n        /* \"#utility.yul\":7299:7300   */\n      0x00\n        /* \"#utility.yul\":7296:7297   */\n      dup1\n        /* \"#utility.yul\":7289:7301   */\n      revert\n        /* \"#utility.yul\":7232:7303   */\n    tag_233:\n        /* \"#utility.yul\":7171:7309   */\n      pop\n      jump\t// out\n        /* \"#utility.yul\":7315:7470   */\n    tag_124:\n        /* \"#utility.yul\":7369:7374   */\n      0x00\n        /* \"#utility.yul\":7407:7413   */\n      dup2\n        /* \"#utility.yul\":7394:7414   */\n      calldataload\n        /* \"#utility.yul\":7385:7414   */\n      swap1\n      pop\n        /* \"#utility.yul\":7423:7464   */\n      tag_235\n        /* \"#utility.yul\":7458:7463   */\n      dup2\n        /* \"#utility.yul\":7423:7464   */\n      tag_123\n      jump\t// in\n    tag_235:\n        /* \"#utility.yul\":7315:7470   */\n      swap3\n      swap2\n      pop\n      pop\n      jump\t// out\n        /* \"#utility.yul\":7476:8291   */\n    tag_43:\n        /* \"#utility.yul\":7571:7577   */\n      0x00\n        /* \"#utility.yul\":7579:7585   */\n      dup1\n        /* \"#utility.yul\":7587:7593   */\n      0x00\n        /* \"#utility.yul\":7636:7638   */\n      0x60\n        /* \"#utility.yul\":7624:7633   */\n      dup5\n        /* \"#utility.yul\":7615:7622   */\n      dup7\n        /* \"#utility.yul\":7611:7634   */\n      sub\n        /* \"#utility.yul\":7607:7639   */\n      slt\n        /* \"#utility.yul\":7604:7723   */\n      iszero\n      tag_237\n      jumpi\n        /* \"#utility.yul\":7642:7721   */\n      tag_238\n      tag_94\n      jump\t// in\n    tag_238:\n        /* \"#utility.yul\":7604:7723   */\n    tag_237:\n        /* \"#utility.yul\":7790:7791   */\n      0x00\n        /* \"#utility.yul\":7779:7788   */\n      dup5\n        /* \"#utility.yul\":7775:7792   */\n      add\n        /* \"#utility.yul\":7762:7793   */\n      calldataload\n        /* \"#utility.yul\":7820:7838   */\n      0xffffffffffffffff\n        /* \"#utility.yul\":7812:7818   */\n      dup2\n        /* \"#utility.yul\":7809:7839   */\n      gt\n        /* \"#utility.yul\":7806:7923   */\n      iszero\n      tag_239\n      jumpi\n        /* \"#utility.yul\":7842:7921   */\n      tag_240\n      tag_95\n      jump\t// in\n    tag_240:\n        /* \"#utility.yul\":7806:7923   */\n    tag_239:\n        /* \"#utility.yul\":7947:8010   */\n      tag_241\n        /* \"#utility.yul\":8002:8009   */\n      dup7\n        /* \"#utility.yul\":7993:7999   */\n      dup3\n        /* \"#utility.yul\":7982:7991   */\n      dup8\n        /* \"#utility.yul\":7978:8000   */\n      add\n        /* \"#utility.yul\":7947:8010   */\n      tag_122\n      jump\t// in\n    tag_241:\n        /* \"#utility.yul\":7937:8010   */\n      swap4\n      pop\n        /* \"#utility.yul\":7733:8020   */\n      pop\n        /* \"#utility.yul\":8059:8061   */\n      0x20\n        /* \"#utility.yul\":8085:8138   */\n      tag_242\n        /* \"#utility.yul\":8130:8137   */\n      dup7\n        /* \"#utility.yul\":8121:8127   */\n      dup3\n        /* \"#utility.yul\":8110:8119   */\n      dup8\n        /* \"#utility.yul\":8106:8128   */\n      add\n        /* \"#utility.yul\":8085:8138   */\n      tag_98\n      jump\t// in\n    tag_242:\n        /* \"#utility.yul\":8075:8138   */\n      swap3\n      pop\n        /* \"#utility.yul\":8030:8148   */\n      pop\n        /* \"#utility.yul\":8187:8189   */\n      0x40\n        /* \"#utility.yul\":8213:8274   */\n      tag_243\n        /* \"#utility.yul\":8266:8273   */\n      dup7\n        /* \"#utility.yul\":8257:8263   */\n      dup3\n        /* \"#utility.yul\":8246:8255   */\n      dup8\n        /* \"#utility.yul\":8242:8264   */\n      add\n        /* \"#utility.yul\":8213:8274   */\n      tag_124\n      jump\t// in\n    tag_243:\n        /* \"#utility.yul\":8203:8274   */\n      swap2\n      pop\n        /* \"#utility.yul\":8158:8284   */\n      pop\n        /* \"#utility.yul\":7476:8291   */\n      swap3\n      pop\n      swap3\n      pop\n      swap3\n      jump\t// out\n        /* \"#utility.yul\":8297:8477   */\n    tag_58:\n        /* \"#utility.yul\":8345:8422   */\n      0x4e487b7100000000000000000000000000000000000000000000000000000000\n        /* \"#utility.yul\":8342:8343   */\n      0x00\n        /* \"#utility.yul\":8335:8423   */\n      mstore\n        /* \"#utility.yul\":8442:8446   */\n      0x32\n        /* \"#utility.yul\":8439:8440   */\n      0x04\n        /* \"#utility.yul\":8432:8447   */\n      mstore\n        /* \"#utility.yul\":8466:8470   */\n      0x24\n        /* \"#utility.yul\":8463:8464   */\n      0x00\n        /* \"#utility.yul\":8456:8471   */\n      revert\n        /* \"#utility.yul\":8483:8663   */\n    tag_125:\n        /* \"#utility.yul\":8531:8608   */\n      0x4e487b7100000000000000000000000000000000000000000000000000000000\n        /* \"#utility.yul\":8528:8529   */\n      0x00\n        /* \"#utility.yul\":8521:8609   */\n      mstore\n        /* \"#utility.yul\":8628:8632   */\n      0x12\n        /* \"#utility.yul\":8625:8626   */\n      0x04\n        /* \"#utility.yul\":8618:8633   */\n      mstore\n        /* \"#utility.yul\":8652:8656   */\n      0x24\n        /* \"#utility.yul\":8649:8650   */\n      0x00\n        /* \"#utility.yul\":8642:8657   */\n      revert\n        /* \"#utility.yul\":8669:8849   */\n    tag_126:\n        /* \"#utility.yul\":8717:8794   */\n      0x4e487b7100000000000000000000000000000000000000000000000000000000\n        /* \"#utility.yul\":8714:8715   */\n      0x00\n        /* \"#utility.yul\":8707:8795   */\n      mstore\n        /* \"#utility.yul\":8814:8818   */\n      0x11\n        /* \"#utility.yul\":8811:8812   */\n      0x04\n        /* \"#utility.yul\":8804:8819   */\n      mstore\n        /* \"#utility.yul\":8838:8842   */\n      0x24\n        /* \"#utility.yul\":8835:8836   */\n      0x00\n        /* \"#utility.yul\":8828:8843   */\n      revert\n        /* \"#utility.yul\":8855:9040   */\n    tag_61:\n        /* \"#utility.yul\":8895:8896   */\n      0x00\n        /* \"#utility.yul\":8912:8932   */\n      tag_248\n        /* \"#utility.yul\":8930:8931   */\n      dup3\n        /* \"#utility.yul\":8912:8932   */\n      tag_96\n      jump\t// in\n    tag_248:\n        /* \"#utility.yul\":8907:8932   */\n      swap2\n      pop\n        /* \"#utility.yul\":8946:8966   */\n      tag_249\n        /* \"#utility.yul\":8964:8965   */\n      dup4\n        /* \"#utility.yul\":8946:8966   */\n      tag_96\n      jump\t// in\n    tag_249:\n        /* \"#utility.yul\":8941:8966   */\n      swap3\n      pop\n        /* \"#utility.yul\":8985:8986   */\n      dup3\n        /* \"#utility.yul\":8975:9010   */\n      tag_250\n      jumpi\n        /* \"#utility.yul\":8990:9008   */\n      tag_251\n      tag_125\n      jump\t// in\n    tag_251:\n        /* \"#utility.yul\":8975:9010   */\n    tag_250:\n        /* \"#utility.yul\":9032:9033   */\n      dup3\n        /* \"#utility.yul\":9029:9030   */\n      dup3\n        /* \"#utility.yul\":9025:9034   */\n      div\n        /* \"#utility.yul\":9020:9034   */\n      swap1\n      pop\n        /* \"#utility.yul\":8855:9040   */\n      swap3\n      swap2\n      pop\n      pop\n      jump\t// out\n        /* \"#utility.yul\":9046:9226   */\n    tag_127:\n        /* \"#utility.yul\":9094:9171   */\n      0x4e487b7100000000000000000000000000000000000000000000000000000000\n        /* \"#utility.yul\":9091:9092   */\n      0x00\n        /* \"#utility.yul\":9084:9172   */\n      mstore\n        /* \"#utility.yul\":9191:9195   */\n      0x22\n        /* \"#utility.yul\":9188:9189   */\n      0x04\n        /* \"#utility.yul\":9181:9196   */\n      mstore\n        /* \"#utility.yul\":9215:9219   */\n      0x24\n        /* \"#utility.yul\":9212:9213   */\n      0x00\n        /* \"#utility.yul\":9205:9220   */\n      revert\n        /* \"#utility.yul\":9232:9552   */\n    tag_69:\n        /* \"#utility.yul\":9276:9282   */\n      0x00\n        /* \"#utility.yul\":9313:9314   */\n      0x02\n        /* \"#utility.yul\":9307:9311   */\n      dup3\n        /* \"#utility.yul\":9303:9315   */\n      div\n        /* \"#utility.yul\":9293:9315   */\n      swap1\n      pop\n        /* \"#utility.yul\":9360:9361   */\n      0x01\n        /* \"#utility.yul\":9354:9358   */\n      dup3\n        /* \"#utility.yul\":9350:9362   */\n      and\n        /* \"#utility.yul\":9381:9399   */\n      dup1\n        /* \"#utility.yul\":9371:9452   */\n      tag_254\n      jumpi\n        /* \"#utility.yul\":9437:9441   */\n      0x7f\n        /* \"#utility.yul\":9429:9435   */\n      dup3\n        /* \"#utility.yul\":9425:9442   */\n      and\n        /* \"#utility.yul\":9415:9442   */\n      swap2\n      pop\n        /* \"#utility.yul\":9371:9452   */\n    tag_254:\n        /* \"#utility.yul\":9499:9501   */\n      0x20\n        /* \"#utility.yul\":9491:9497   */\n      dup3\n        /* \"#utility.yul\":9488:9502   */\n      lt\n        /* \"#utility.yul\":9468:9486   */\n      dup2\n        /* \"#utility.yul\":9465:9503   */\n      sub\n        /* \"#utility.yul\":9462:9546   */\n      tag_255\n      jumpi\n        /* \"#utility.yul\":9518:9536   */\n      tag_256\n      tag_127\n      jump\t// in\n    tag_256:\n        /* \"#utility.yul\":9462:9546   */\n    tag_255:\n        /* \"#utility.yul\":9283:9552   */\n      pop\n        /* \"#utility.yul\":9232:9552   */\n      swap2\n      swap1\n      pop\n      jump\t// out\n        /* \"#utility.yul\":9558:9782   */\n    tag_128:\n        /* \"#utility.yul\":9698:9732   */\n      0x4f6e6c7920746865206d616e616765722063616e206d616b6520746865207265\n        /* \"#utility.yul\":9694:9695   */\n      0x00\n        /* \"#utility.yul\":9686:9692   */\n      dup3\n        /* \"#utility.yul\":9682:9696   */\n      add\n        /* \"#utility.yul\":9675:9733   */\n      mstore\n        /* \"#utility.yul\":9767:9774   */\n      0x7175657374000000000000000000000000000000000000000000000000000000\n        /* \"#utility.yul\":9762:9764   */\n      0x20\n        /* \"#utility.yul\":9754:9760   */\n      dup3\n        /* \"#utility.yul\":9750:9765   */\n      add\n        /* \"#utility.yul\":9743:9775   */\n      mstore\n        /* \"#utility.yul\":9558:9782   */\n      pop\n      jump\t// out\n        /* \"#utility.yul\":9788:10154   */\n    tag_129:\n        /* \"#utility.yul\":9930:9933   */\n      0x00\n        /* \"#utility.yul\":9951:10018   */\n      tag_259\n        /* \"#utility.yul\":10015:10017   */\n      0x25\n        /* \"#utility.yul\":10010:10013   */\n      dup4\n        /* \"#utility.yul\":9951:10018   */\n      tag_107\n      jump\t// in\n    tag_259:\n        /* \"#utility.yul\":9944:10018   */\n      swap2\n      pop\n        /* \"#utility.yul\":10027:10120   */\n      tag_260\n        /* \"#utility.yul\":10116:10119   */\n      dup3\n        /* \"#utility.yul\":10027:10120   */\n      tag_128\n      jump\t// in\n    tag_260:\n        /* \"#utility.yul\":10145:10147   */\n      0x40\n        /* \"#utility.yul\":10140:10143   */\n      dup3\n        /* \"#utility.yul\":10136:10148   */\n      add\n        /* \"#utility.yul\":10129:10148   */\n      swap1\n      pop\n        /* \"#utility.yul\":9788:10154   */\n      swap2\n      swap1\n      pop\n      jump\t// out\n        /* \"#utility.yul\":10160:10579   */\n    tag_77:\n        /* \"#utility.yul\":10326:10330   */\n      0x00\n        /* \"#utility.yul\":10364:10366   */\n      0x20\n        /* \"#utility.yul\":10353:10362   */\n      dup3\n        /* \"#utility.yul\":10349:10367   */\n      add\n        /* \"#utility.yul\":10341:10367   */\n      swap1\n      pop\n        /* \"#utility.yul\":10413:10422   */\n      dup2\n        /* \"#utility.yul\":10407:10411   */\n      dup2\n        /* \"#utility.yul\":10403:10423   */\n      sub\n        /* \"#utility.yul\":10399:10400   */\n      0x00\n        /* \"#utility.yul\":10388:10397   */\n      dup4\n        /* \"#utility.yul\":10384:10401   */\n      add\n        /* \"#utility.yul\":10377:10424   */\n      mstore\n        /* \"#utility.yul\":10441:10572   */\n      tag_262\n        /* \"#utility.yul\":10567:10571   */\n      dup2\n        /* \"#utility.yul\":10441:10572   */\n      tag_129\n      jump\t// in\n    tag_262:\n        /* \"#utility.yul\":10433:10572   */\n      swap1\n      pop\n        /* \"#utility.yul\":10160:10579   */\n      swap2\n      swap1\n      pop\n      jump\t// out\n        /* \"#utility.yul\":10585:10726   */\n    tag_130:\n        /* \"#utility.yul\":10634:10638   */\n      0x00\n        /* \"#utility.yul\":10657:10660   */\n      dup2\n        /* \"#utility.yul\":10649:10660   */\n      swap1\n      pop\n        /* \"#utility.yul\":10680:10683   */\n      dup2\n        /* \"#utility.yul\":10677:10678   */\n      0x00\n        /* \"#utility.yul\":10670:10684   */\n      mstore\n        /* \"#utility.yul\":10714:10718   */\n      0x20\n        /* \"#utility.yul\":10711:10712   */\n      0x00\n        /* \"#utility.yul\":10701:10719   */\n      keccak256\n        /* \"#utility.yul\":10693:10719   */\n      swap1\n      pop\n        /* \"#utility.yul\":10585:10726   */\n      swap2\n      swap1\n      pop\n      jump\t// out\n        /* \"#utility.yul\":10732:10825   */\n    tag_131:\n        /* \"#utility.yul\":10769:10775   */\n      0x00\n        /* \"#utility.yul\":10816:10818   */\n      0x20\n        /* \"#utility.yul\":10811:10813   */\n      0x1f\n        /* \"#utility.yul\":10804:10809   */\n      dup4\n        /* \"#utility.yul\":10800:10814   */\n      add\n        /* \"#utility.yul\":10796:10819   */\n      div\n        /* \"#utility.yul\":10786:10819   */\n      swap1\n      pop\n        /* \"#utility.yul\":10732:10825   */\n      swap2\n      swap1\n      pop\n      jump\t// out\n        /* \"#utility.yul\":10831:10938   */\n    tag_132:\n        /* \"#utility.yul\":10875:10883   */\n      0x00\n        /* \"#utility.yul\":10925:10930   */\n      dup3\n        /* \"#utility.yul\":10919:10923   */\n      dup3\n        /* \"#utility.yul\":10915:10931   */\n      shl\n        /* \"#utility.yul\":10894:10931   */\n      swap1\n      pop\n        /* \"#utility.yul\":10831:10938   */\n      swap3\n      swap2\n      pop\n      pop\n      jump\t// out\n        /* \"#utility.yul\":10944:11337   */\n    tag_133:\n        /* \"#utility.yul\":11013:11019   */\n      0x00\n        /* \"#utility.yul\":11063:11064   */\n      0x08\n        /* \"#utility.yul\":11051:11061   */\n      dup4\n        /* \"#utility.yul\":11047:11065   */\n      mul\n        /* \"#utility.yul\":11086:11183   */\n      tag_267\n        /* \"#utility.yul\":11116:11182   */\n      0xffffffffffffffffffffffffffffffffffffffffffffffffffffffffffffffff\n        /* \"#utility.yul\":11105:11114   */\n      dup3\n        /* \"#utility.yul\":11086:11183   */\n      tag_132\n      jump\t// in\n    tag_267:\n        /* \"#utility.yul\":11204:11243   */\n      tag_268\n        /* \"#utility.yul\":11234:11242   */\n      dup7\n        /* \"#utility.yul\":11223:11232   */\n      dup4\n        /* \"#utility.yul\":11204:11243   */\n      tag_132\n      jump\t// in\n    tag_268:\n        /* \"#utility.yul\":11192:11243   */\n      swap6\n      pop\n        /* \"#utility.yul\":11276:11280   */\n      dup1\n        /* \"#utility.yul\":11272:11281   */\n      not\n        /* \"#utility.yul\":11265:11270   */\n      dup5\n        /* \"#utility.yul\":11261:11282   */\n      and\n        /* \"#utility.yul\":11252:11282   */\n      swap4\n      pop\n        /* \"#utility.yul\":11325:11329   */\n      dup1\n        /* \"#utility.yul\":11315:11323   */\n      dup7\n        /* \"#utility.yul\":11311:11330   */\n      and\n        /* \"#utility.yul\":11304:11309   */\n      dup5\n        /* \"#utility.yul\":11301:11331   */\n      or\n        /* \"#utility.yul\":11291:11331   */\n      swap3\n      pop\n        /* \"#utility.yul\":11020:11337   */\n      pop\n      pop\n        /* \"#utility.yul\":10944:11337   */\n      swap4\n      swap3\n      pop\n      pop\n      pop\n      jump\t// out\n        /* \"#utility.yul\":11343:11403   */\n    tag_134:\n        /* \"#utility.yul\":11371:11374   */\n      0x00\n        /* \"#utility.yul\":11392:11397   */\n      dup2\n        /* \"#utility.yul\":11385:11397   */\n      swap1\n      pop\n        /* \"#utility.yul\":11343:11403   */\n      swap2\n      swap1\n      pop\n      jump\t// out\n        /* \"#utility.yul\":11409:11551   */\n    tag_135:\n        /* \"#utility.yul\":11459:11468   */\n      0x00\n        /* \"#utility.yul\":11492:11545   */\n      tag_271\n        /* \"#utility.yul\":11510:11544   */\n      tag_272\n        /* \"#utility.yul\":11519:11543   */\n      tag_273\n        /* \"#utility.yul\":11537:11542   */\n      dup5\n        /* \"#utility.yul\":11519:11543   */\n      tag_96\n      jump\t// in\n    tag_273:\n        /* \"#utility.yul\":11510:11544   */\n      tag_134\n      jump\t// in\n    tag_272:\n        /* \"#utility.yul\":11492:11545   */\n      tag_96\n      jump\t// in\n    tag_271:\n        /* \"#utility.yul\":11479:11545   */\n      swap1\n      pop\n        /* \"#utility.yul\":11409:11551   */\n      swap2\n      swap1\n      pop\n      jump\t// out\n        /* \"#utility.yul\":11557:11632   */\n    tag_136:\n        /* \"#utility.yul\":11600:11603   */\n      0x00\n        /* \"#utility.yul\":11621:11626   */\n      dup2\n        /* \"#utility.yul\":11614:11626   */\n      swap1\n      pop\n        /* \"#utility.yul\":11557:11632   */\n      swap2\n      swap1\n      pop\n      jump\t// out\n        /* \"#utility.yul\":11638:11907   */\n    tag_137:\n        /* \"#utility.yul\":11748:11787   */\n      tag_276\n        /* \"#utility.yul\":11779:11786   */\n      dup4\n        /* \"#utility.yul\":11748:11787   */\n      tag_135\n      jump\t// in\n    tag_276:\n        /* \"#utility.yul\":11809:11900   */\n      tag_277\n        /* \"#utility.yul\":11858:11899   */\n      tag_278\n        /* \"#utility.yul\":11882:11898   */\n      dup3\n        /* \"#utility.yul\":11858:11899   */\n      tag_136\n      jump\t// in\n    tag_278:\n        /* \"#utility.yul\":11850:11856   */\n      dup5\n        /* \"#utility.yul\":11843:11847   */\n      dup5\n        /* \"#utility.yul\":11837:11848   */\n      sload\n        /* \"#utility.yul\":11809:11900   */\n      tag_133\n      jump\t// in\n    tag_277:\n        /* \"#utility.yul\":11803:11807   */\n      dup3\n        /* \"#utility.yul\":11796:11901   */\n      sstore\n        /* \"#utility.yul\":11714:11907   */\n      pop\n        /* \"#utility.yul\":11638:11907   */\n      pop\n      pop\n      pop\n      jump\t// out\n        /* \"#utility.yul\":11913:11986   */\n    tag_138:\n        /* \"#utility.yul\":11958:11961   */\n      0x00\n        /* \"#utility.yul\":11913:11986   */\n      swap1\n      jump\t// out\n        /* \"#utility.yul\":11992:12181   */\n    tag_139:\n        /* \"#utility.yul\":12069:12101   */\n      tag_281\n      tag_138\n      jump\t// in\n    tag_281:\n        /* \"#utility.yul\":12110:12175   */\n      tag_282\n        /* \"#utility.yul\":12168:12174   */\n      dup2\n        /* \"#utility.yul\":12160:12166   */\n      dup5\n        /* \"#utility.yul\":12154:12158   */\n      dup5\n        /* \"#utility.yul\":12110:12175   */\n      tag_137\n      jump\t// in\n    tag_282:\n        /* \"#utility.yul\":12045:12181   */\n      pop\n        /* \"#utility.yul\":11992:12181   */\n      pop\n      pop\n      jump\t// out\n        /* \"#utility.yul\":12187:12373   */\n    tag_140:\n        /* \"#utility.yul\":12247:12367   */\n    tag_284:\n        /* \"#utility.yul\":12264:12267   */\n      dup2\n        /* \"#utility.yul\":12257:12262   */\n      dup2\n        /* \"#utility.yul\":12254:12268   */\n      lt\n        /* \"#utility.yul\":12247:12367   */\n      iszero\n      tag_286\n      jumpi\n        /* \"#utility.yul\":12318:12357   */\n      tag_287\n        /* \"#utility.yul\":12355:12356   */\n      0x00\n        /* \"#utility.yul\":12348:12353   */\n      dup3\n        /* \"#utility.yul\":12318:12357   */\n      tag_139\n      jump\t// in\n    tag_287:\n        /* \"#utility.yul\":12291:12292   */\n      0x01\n        /* \"#utility.yul\":12284:12289   */\n      dup2\n        /* \"#utility.yul\":12280:12293   */\n      add\n        /* \"#utility.yul\":12271:12293   */\n      swap1\n      pop\n        /* \"#utility.yul\":12247:12367   */\n      jump(tag_284)\n    tag_286:\n        /* \"#utility.yul\":12187:12373   */\n      pop\n      pop\n      jump\t// out\n        /* \"#utility.yul\":12379:12922   */\n    tag_141:\n        /* \"#utility.yul\":12480:12482   */\n      0x1f\n        /* \"#utility.yul\":12475:12478   */\n      dup3\n        /* \"#utility.yul\":12472:12483   */\n      gt\n        /* \"#utility.yul\":12469:12915   */\n      iszero\n      tag_289\n      jumpi\n        /* \"#utility.yul\":12514:12552   */\n      tag_290\n        /* \"#utility.yul\":12546:12551   */\n      dup2\n        /* \"#utility.yul\":12514:12552   */\n      tag_130\n      jump\t// in\n    tag_290:\n        /* \"#utility.yul\":12598:12627   */\n      tag_291\n        /* \"#utility.yul\":12616:12626   */\n      dup5\n        /* \"#utility.yul\":12598:12627   */\n      tag_131\n      jump\t// in\n    tag_291:\n        /* \"#utility.yul\":12588:12596   */\n      dup2\n        /* \"#utility.yul\":12584:12628   */\n      add\n        /* \"#utility.yul\":12781:12783   */\n      0x20\n        /* \"#utility.yul\":12769:12779   */\n      dup6\n        /* \"#utility.yul\":12766:12784   */\n      lt\n        /* \"#utility.yul\":12763:12812   */\n      iszero\n      tag_292\n      jumpi\n        /* \"#utility.yul\":12802:12810   */\n      dup2\n        /* \"#utility.yul\":12787:12810   */\n      swap1\n      pop\n        /* \"#utility.yul\":12763:12812   */\n    tag_292:\n        /* \"#utility.yul\":12825:12905   */\n      tag_293\n        /* \"#utility.yul\":12881:12903   */\n      tag_294\n        /* \"#utility.yul\":12899:12902   */\n      dup6\n        /* \"#utility.yul\":12881:12903   */\n      tag_131\n      jump\t// in\n    tag_294:\n        /* \"#utility.yul\":12871:12879   */\n      dup4\n        /* \"#utility.yul\":12867:12904   */\n      add\n        /* \"#utility.yul\":12854:12865   */\n      dup3\n        /* \"#utility.yul\":12825:12905   */\n      tag_140\n      jump\t// in\n    tag_293:\n        /* \"#utility.yul\":12484:12915   */\n      pop\n      pop\n        /* \"#utility.yul\":12469:12915   */\n    tag_289:\n        /* \"#utility.yul\":12379:12922   */\n      pop\n      pop\n      pop\n      jump\t// out\n        /* \"#utility.yul\":12928:13045   */\n    tag_142:\n        /* \"#utility.yul\":12982:12990   */\n      0x00\n        /* \"#utility.yul\":13032:13037   */\n      dup3\n        /* \"#utility.yul\":13026:13030   */\n      dup3\n        /* \"#utility.yul\":13022:13038   */\n      shr\n        /* \"#utility.yul\":13001:13038   */\n      swap1\n      pop\n        /* \"#utility.yul\":12928:13045   */\n      swap3\n      swap2\n      pop\n      pop\n      jump\t// out\n        /* \"#utility.yul\":13051:13220   */\n    tag_143:\n        /* \"#utility.yul\":13095:13101   */\n      0x00\n        /* \"#utility.yul\":13128:13179   */\n      tag_297\n        /* \"#utility.yul\":13176:13177   */\n      0x00\n        /* \"#utility.yul\":13172:13178   */\n      not\n        /* \"#utility.yul\":13164:13169   */\n      dup5\n        /* \"#utility.yul\":13161:13162   */\n      0x08\n        /* \"#utility.yul\":13157:13170   */\n      mul\n        /* \"#utility.yul\":13128:13179   */\n      tag_142\n      jump\t// in\n    tag_297:\n        /* \"#utility.yul\":13124:13180   */\n      not\n        /* \"#utility.yul\":13209:13213   */\n      dup1\n        /* \"#utility.yul\":13203:13207   */\n      dup4\n        /* \"#utility.yul\":13199:13214   */\n      and\n        /* \"#utility.yul\":13189:13214   */\n      swap2\n      pop\n        /* \"#utility.yul\":13102:13220   */\n      pop\n        /* \"#utility.yul\":13051:13220   */\n      swap3\n      swap2\n      pop\n      pop\n      jump\t// out\n        /* \"#utility.yul\":13225:13520   */\n    tag_144:\n        /* \"#utility.yul\":13301:13305   */\n      0x00\n        /* \"#utility.yul\":13447:13476   */\n      tag_299\n        /* \"#utility.yul\":13472:13475   */\n      dup4\n        /* \"#utility.yul\":13466:13470   */\n      dup4\n        /* \"#utility.yul\":13447:13476   */\n      tag_143\n      jump\t// in\n    tag_299:\n        /* \"#utility.yul\":13439:13476   */\n      swap2\n      pop\n        /* \"#utility.yul\":13509:13512   */\n      dup3\n        /* \"#utility.yul\":13506:13507   */\n      0x02\n        /* \"#utility.yul\":13502:13513   */\n      mul\n        /* \"#utility.yul\":13496:13500   */\n      dup3\n        /* \"#utility.yul\":13493:13514   */\n      or\n        /* \"#utility.yul\":13485:13514   */\n      swap1\n      pop\n        /* \"#utility.yul\":13225:13520   */\n      swap3\n      swap2\n      pop\n      pop\n      jump\t// out\n        /* \"#utility.yul\":13525:14920   */\n    tag_81:\n        /* \"#utility.yul\":13642:13679   */\n      tag_301\n        /* \"#utility.yul\":13675:13678   */\n      dup3\n        /* \"#utility.yul\":13642:13679   */\n      tag_106\n      jump\t// in\n    tag_301:\n        /* \"#utility.yul\":13744:13762   */\n      0xffffffffffffffff\n        /* \"#utility.yul\":13736:13742   */\n      dup2\n        /* \"#utility.yul\":13733:13763   */\n      gt\n        /* \"#utility.yul\":13730:13786   */\n      iszero\n      tag_302\n      jumpi\n        /* \"#utility.yul\":13766:13784   */\n      tag_303\n      tag_116\n      jump\t// in\n    tag_303:\n        /* \"#utility.yul\":13730:13786   */\n    tag_302:\n        /* \"#utility.yul\":13810:13848   */\n      tag_304\n        /* \"#utility.yul\":13842:13846   */\n      dup3\n        /* \"#utility.yul\":13836:13847   */\n      sload\n        /* \"#utility.yul\":13810:13848   */\n      tag_69\n      jump\t// in\n    tag_304:\n        /* \"#utility.yul\":13895:13962   */\n      tag_305\n        /* \"#utility.yul\":13955:13961   */\n      dup3\n        /* \"#utility.yul\":13947:13953   */\n      dup3\n        /* \"#utility.yul\":13941:13945   */\n      dup6\n        /* \"#utility.yul\":13895:13962   */\n      tag_141\n      jump\t// in\n    tag_305:\n        /* \"#utility.yul\":13989:13990   */\n      0x00\n        /* \"#utility.yul\":14013:14017   */\n      0x20\n        /* \"#utility.yul\":14000:14017   */\n      swap1\n      pop\n        /* \"#utility.yul\":14045:14047   */\n      0x1f\n        /* \"#utility.yul\":14037:14043   */\n      dup4\n        /* \"#utility.yul\":14034:14048   */\n      gt\n        /* \"#utility.yul\":14062:14063   */\n      0x01\n        /* \"#utility.yul\":14057:14675   */\n      dup2\n      eq\n      tag_307\n      jumpi\n        /* \"#utility.yul\":14719:14720   */\n      0x00\n        /* \"#utility.yul\":14736:14742   */\n      dup5\n        /* \"#utility.yul\":14733:14810   */\n      iszero\n      tag_308\n      jumpi\n        /* \"#utility.yul\":14785:14794   */\n      dup3\n        /* \"#utility.yul\":14780:14783   */\n      dup8\n        /* \"#utility.yul\":14776:14795   */\n      add\n        /* \"#utility.yul\":14770:14796   */\n      mload\n        /* \"#utility.yul\":14761:14796   */\n      swap1\n      pop\n        /* \"#utility.yul\":14733:14810   */\n    tag_308:\n        /* \"#utility.yul\":14836:14903   */\n      tag_309\n        /* \"#utility.yul\":14896:14902   */\n      dup6\n        /* \"#utility.yul\":14889:14894   */\n      dup3\n        /* \"#utility.yul\":14836:14903   */\n      tag_144\n      jump\t// in\n    tag_309:\n        /* \"#utility.yul\":14830:14834   */\n      dup7\n        /* \"#utility.yul\":14823:14904   */\n      sstore\n        /* \"#utility.yul\":14692:14914   */\n      pop\n        /* \"#utility.yul\":14027:14914   */\n      jump(tag_306)\n        /* \"#utility.yul\":14057:14675   */\n    tag_307:\n        /* \"#utility.yul\":14109:14113   */\n      0x1f\n        /* \"#utility.yul\":14105:14114   */\n      not\n        /* \"#utility.yul\":14097:14103   */\n      dup5\n        /* \"#utility.yul\":14093:14115   */\n      and\n        /* \"#utility.yul\":14143:14180   */\n      tag_310\n        /* \"#utility.yul\":14175:14179   */\n      dup7\n        /* \"#utility.yul\":14143:14180   */\n      tag_130\n      jump\t// in\n    tag_310:\n        /* \"#utility.yul\":14202:14203   */\n      0x00\n        /* \"#utility.yul\":14216:14424   */\n    tag_311:\n        /* \"#utility.yul\":14230:14237   */\n      dup3\n        /* \"#utility.yul\":14227:14228   */\n      dup2\n        /* \"#utility.yul\":14224:14238   */\n      lt\n        /* \"#utility.yul\":14216:14424   */\n      iszero\n      tag_313\n      jumpi\n        /* \"#utility.yul\":14309:14318   */\n      dup5\n        /* \"#utility.yul\":14304:14307   */\n      dup10\n        /* \"#utility.yul\":14300:14319   */\n      add\n        /* \"#utility.yul\":14294:14320   */\n      mload\n        /* \"#utility.yul\":14286:14292   */\n      dup3\n        /* \"#utility.yul\":14279:14321   */\n      sstore\n        /* \"#utility.yul\":14360:14361   */\n      0x01\n        /* \"#utility.yul\":14352:14358   */\n      dup3\n        /* \"#utility.yul\":14348:14362   */\n      add\n        /* \"#utility.yul\":14338:14362   */\n      swap2\n      pop\n        /* \"#utility.yul\":14407:14409   */\n      0x20\n        /* \"#utility.yul\":14396:14405   */\n      dup6\n        /* \"#utility.yul\":14392:14410   */\n      add\n        /* \"#utility.yul\":14379:14410   */\n      swap5\n      pop\n        /* \"#utility.yul\":14253:14257   */\n      0x20\n        /* \"#utility.yul\":14250:14251   */\n      dup2\n        /* \"#utility.yul\":14246:14258   */\n      add\n        /* \"#utility.yul\":14241:14258   */\n      swap1\n      pop\n        /* \"#utility.yul\":14216:14424   */\n      jump(tag_311)\n    tag_313:\n        /* \"#utility.yul\":14452:14458   */\n      dup7\n        /* \"#utility.yul\":14443:14450   */\n      dup4\n        /* \"#utility.yul\":14440:14459   */\n      lt\n        /* \"#utility.yul\":14437:14616   */\n      iszero\n      tag_314\n      jumpi\n        /* \"#utility.yul\":14510:14519   */\n      dup5\n        /* \"#utility.yul\":14505:14508   */\n      dup10\n        /* \"#utility.yul\":14501:14520   */\n      add\n        /* \"#utility.yul\":14495:14521   */\n      mload\n        /* \"#utility.yul\":14553:14601   */\n      tag_315\n        /* \"#utility.yul\":14595:14599   */\n      0x1f\n        /* \"#utility.yul\":14587:14593   */\n      dup10\n        /* \"#utility.yul\":14583:14600   */\n      and\n        /* \"#utility.yul\":14572:14581   */\n      dup3\n        /* \"#utility.yul\":14553:14601   */\n      tag_143\n      jump\t// in\n    tag_315:\n        /* \"#utility.yul\":14545:14551   */\n      dup4\n        /* \"#utility.yul\":14538:14602   */\n      sstore\n        /* \"#utility.yul\":14460:14616   */\n      pop\n        /* \"#utility.yul\":14437:14616   */\n    tag_314:\n        /* \"#utility.yul\":14662:14663   */\n      0x01\n        /* \"#utility.yul\":14658:14659   */\n      0x02\n        /* \"#utility.yul\":14650:14656   */\n      dup9\n        /* \"#utility.yul\":14646:14660   */\n      mul\n        /* \"#utility.yul\":14642:14664   */\n      add\n        /* \"#utility.yul\":14636:14640   */\n      dup9\n        /* \"#utility.yul\":14629:14665   */\n      sstore\n        /* \"#utility.yul\":14064:14675   */\n      pop\n      pop\n      pop\n        /* \"#utility.yul\":14027:14914   */\n    tag_306:\n      pop\n        /* \"#utility.yul\":13617:14920   */\n      pop\n      pop\n      pop\n        /* \"#utility.yul\":13525:14920   */\n      pop\n      pop\n      jump\t// out\n        /* \"#utility.yul\":14926:15159   */\n    tag_85:\n        /* \"#utility.yul\":14965:14968   */\n      0x00\n        /* \"#utility.yul\":14988:15012   */\n      tag_317\n        /* \"#utility.yul\":15006:15011   */\n      dup3\n        /* \"#utility.yul\":14988:15012   */\n      tag_96\n      jump\t// in\n    tag_317:\n        /* \"#utility.yul\":14979:15012   */\n      swap2\n      pop\n        /* \"#utility.yul\":15034:15100   */\n      0xffffffffffffffffffffffffffffffffffffffffffffffffffffffffffffffff\n        /* \"#utility.yul\":15027:15032   */\n      dup3\n        /* \"#utility.yul\":15024:15101   */\n      sub\n        /* \"#utility.yul\":15021:15124   */\n      tag_318\n      jumpi\n        /* \"#utility.yul\":15104:15122   */\n      tag_319\n      tag_126\n      jump\t// in\n    tag_319:\n        /* \"#utility.yul\":15021:15124   */\n    tag_318:\n        /* \"#utility.yul\":15151:15152   */\n      0x01\n        /* \"#utility.yul\":15144:15149   */\n      dup3\n        /* \"#utility.yul\":15140:15153   */\n      add\n        /* \"#utility.yul\":15133:15153   */\n      swap1\n      pop\n        /* \"#utility.yul\":14926:15159   */\n      swap2\n      swap1\n      pop\n      jump\t// out\n\n    auxdata: 0xa264697066735822122012e63e8a37e3b36e2f9959e9f113ab3007e2cecab778012a16e65ef6d08c6d6664736f6c63430008150033\n}\n",
    "bytecode": {
      "linkReferences": {},
      "object": "608060405234801562000010575f80fd5b506040516200115b3803806200115b833981810160405281019062000036919062000129565b8060015f6101000a81548173ffffffffffffffffffffffffffffffffffffffff021916908373ffffffffffffffffffffffffffffffffffffffff160217905550816002819055505f60048190555050506200016e565b5f80fd5b5f819050919050565b620000a48162000090565b8114620000af575f80fd5b50565b5f81519050620000c28162000099565b92915050565b5f73ffffffffffffffffffffffffffffffffffffffff82169050919050565b5f620000f382620000c8565b9050919050565b6200010581620000e7565b811462000110575f80fd5b50565b5f815190506200012381620000fa565b92915050565b5f80604083850312156200014257620001416200008c565b5b5f6200015185828601620000b2565b9250506020620001648582860162000113565b9150509250929050565b610fdf806200017c5f395ff3fe608060405260043610610085575f3560e01c806382fde0931161005857806382fde093146101575780638a9cfd5514610181578063937e09b1146101a9578063d7bb99ba146101d3578063d7d1bbdb146101dd57610085565b806303441006146100895780630a144391146100b1578063481c6a75146100ed57806381d12c5814610117575b5f80fd5b348015610094575f80fd5b506100af60048036038101906100aa919061075d565b610205565b005b3480156100bc575f80fd5b506100d760048036038101906100d291906107e2565b6102eb565b6040516100e49190610827565b60405180910390f35b3480156100f8575f80fd5b50610101610308565b60405161010e919061084f565b60405180910390f35b348015610122575f80fd5b5061013d6004803603810190610138919061075d565b61032d565b60405161014e959493929190610921565b60405180910390f35b348015610162575f80fd5b5061016b61041f565b6040516101789190610979565b60405180910390f35b34801561018c575f80fd5b506101a760048036038101906101a29190610ae8565b610425565b005b3480156101b4575f80fd5b506101bd61055b565b6040516101ca9190610979565b60405180910390f35b6101db610561565b005b3480156101e8575f80fd5b5061020360048036038101906101fe919061075d565b6105dc565b005b5f80828154811061021957610218610b54565b5b905f5260205f209060050201905060026004546102369190610bdb565b816003015411610244575f80fd5b8060020160149054906101000a900460ff161561025f575f80fd5b806002015f9054906101000a900473ffffffffffffffffffffffffffffffffffffffff1673ffffffffffffffffffffffffffffffffffffffff166108fc826001015490811502906040515f60405180830381858888f193505050501580156102c9573d5f803e3d5ffd5b5060018160020160146101000a81548160ff0219169083151502179055505050565b6003602052805f5260405f205f915054906101000a900460ff1681565b60015f9054906101000a900473ffffffffffffffffffffffffffffffffffffffff1681565b5f818154811061033b575f80fd5b905f5260205f2090600502015f91509050805f01805461035a90610c38565b80601f016020809104026020016040519081016040528092919081815260200182805461038690610c38565b80156103d15780601f106103a8576101008083540402835291602001916103d1565b820191905f5260205f20905b8154815290600101906020018083116103b457829003601f168201915b505050505090806001015490806002015f9054906101000a900473ffffffffffffffffffffffffffffffffffffffff16908060020160149054906101000a900460ff16908060030154905085565b60045481565b60015f9054906101000a900473ffffffffffffffffffffffffffffffffffffffff1673ffffffffffffffffffffffffffffffffffffffff163373ffffffffffffffffffffffffffffffffffffffff16146104b4576040517f08c379a00000000000000000000000000000000000000000000000000000000081526004016104ab90610cd8565b60405180910390fd5b5f8060018160018154018082558091505003905f5260205f209060050201905083815f0190816104e49190610e93565b5082816001018190555081816002015f6101000a81548173ffffffffffffffffffffffffffffffffffffffff021916908373ffffffffffffffffffffffffffffffffffffffff1602179055505f8160020160146101000a81548160ff0219169083151502179055505f816003018190555050505050565b60025481565b600254341161056e575f80fd5b600160035f3373ffffffffffffffffffffffffffffffffffffffff1673ffffffffffffffffffffffffffffffffffffffff1681526020019081526020015f205f6101000a81548160ff02191690831515021790555060045f8154809291906105d590610f62565b9190505550565b5f8082815481106105f0576105ef610b54565b5b905f5260205f209060050201905060035f3373ffffffffffffffffffffffffffffffffffffffff1673ffffffffffffffffffffffffffffffffffffffff1681526020019081526020015f205f9054906101000a900460ff16610650575f80fd5b806004015f3373ffffffffffffffffffffffffffffffffffffffff1673ffffffffffffffffffffffffffffffffffffffff1681526020019081526020015f205f9054906101000a900460ff16156106a5575f80fd5b6001816004015f3373ffffffffffffffffffffffffffffffffffffffff1673ffffffffffffffffffffffffffffffffffffffff1681526020019081526020015f205f6101000a81548160ff021916908315150217905550806003015f81548092919061071090610f62565b91905055505050565b5f604051905090565b5f80fd5b5f80fd5b5f819050919050565b61073c8161072a565b8114610746575f80fd5b50565b5f8135905061075781610733565b92915050565b5f6020828403121561077257610771610722565b5b5f61077f84828501610749565b91505092915050565b5f73ffffffffffffffffffffffffffffffffffffffff82169050919050565b5f6107b182610788565b9050919050565b6107c1816107a7565b81146107cb575f80fd5b50565b5f813590506107dc816107b8565b92915050565b5f602082840312156107f7576107f6610722565b5b5f610804848285016107ce565b91505092915050565b5f8115159050919050565b6108218161080d565b82525050565b5f60208201905061083a5f830184610818565b92915050565b610849816107a7565b82525050565b5f6020820190506108625f830184610840565b92915050565b5f81519050919050565b5f82825260208201905092915050565b5f5b8381101561089f578082015181840152602081019050610884565b5f8484015250505050565b5f601f19601f8301169050919050565b5f6108c482610868565b6108ce8185610872565b93506108de818560208601610882565b6108e7816108aa565b840191505092915050565b6108fb8161072a565b82525050565b5f61090b82610788565b9050919050565b61091b81610901565b82525050565b5f60a0820190508181035f83015261093981886108ba565b905061094860208301876108f2565b6109556040830186610912565b6109626060830185610818565b61096f60808301846108f2565b9695505050505050565b5f60208201905061098c5f8301846108f2565b92915050565b5f80fd5b5f80fd5b7f4e487b71000000000000000000000000000000000000000000000000000000005f52604160045260245ffd5b6109d0826108aa565b810181811067ffffffffffffffff821117156109ef576109ee61099a565b5b80604052505050565b5f610a01610719565b9050610a0d82826109c7565b919050565b5f67ffffffffffffffff821115610a2c57610a2b61099a565b5b610a35826108aa565b9050602081019050919050565b828183375f83830152505050565b5f610a62610a5d84610a12565b6109f8565b905082815260208101848484011115610a7e57610a7d610996565b5b610a89848285610a42565b509392505050565b5f82601f830112610aa557610aa4610992565b5b8135610ab5848260208601610a50565b91505092915050565b610ac781610901565b8114610ad1575f80fd5b50565b5f81359050610ae281610abe565b92915050565b5f805f60608486031215610aff57610afe610722565b5b5f84013567ffffffffffffffff811115610b1c57610b1b610726565b5b610b2886828701610a91565b9350506020610b3986828701610749565b9250506040610b4a86828701610ad4565b9150509250925092565b7f4e487b71000000000000000000000000000000000000000000000000000000005f52603260045260245ffd5b7f4e487b71000000000000000000000000000000000000000000000000000000005f52601260045260245ffd5b7f4e487b71000000000000000000000000000000000000000000000000000000005f52601160045260245ffd5b5f610be58261072a565b9150610bf08361072a565b925082610c0057610bff610b81565b5b828204905092915050565b7f4e487b71000000000000000000000000000000000000000000000000000000005f52602260045260245ffd5b5f6002820490506001821680610c4f57607f821691505b602082108103610c6257610c61610c0b565b5b50919050565b7f4f6e6c7920746865206d616e616765722063616e206d616b65207468652072655f8201527f7175657374000000000000000000000000000000000000000000000000000000602082015250565b5f610cc2602583610872565b9150610ccd82610c68565b604082019050919050565b5f6020820190508181035f830152610cef81610cb6565b9050919050565b5f819050815f5260205f209050919050565b5f6020601f8301049050919050565b5f82821b905092915050565b5f60088302610d527fffffffffffffffffffffffffffffffffffffffffffffffffffffffffffffffff82610d17565b610d5c8683610d17565b95508019841693508086168417925050509392505050565b5f819050919050565b5f610d97610d92610d8d8461072a565b610d74565b61072a565b9050919050565b5f819050919050565b610db083610d7d565b610dc4610dbc82610d9e565b848454610d23565b825550505050565b5f90565b610dd8610dcc565b610de3818484610da7565b505050565b5b81811015610e0657610dfb5f82610dd0565b600181019050610de9565b5050565b601f821115610e4b57610e1c81610cf6565b610e2584610d08565b81016020851015610e34578190505b610e48610e4085610d08565b830182610de8565b50505b505050565b5f82821c905092915050565b5f610e6b5f1984600802610e50565b1980831691505092915050565b5f610e838383610e5c565b9150826002028217905092915050565b610e9c82610868565b67ffffffffffffffff811115610eb557610eb461099a565b5b610ebf8254610c38565b610eca828285610e0a565b5f60209050601f831160018114610efb575f8415610ee9578287015190505b610ef38582610e78565b865550610f5a565b601f198416610f0986610cf6565b5f5b82811015610f3057848901518255600182019150602085019450602081019050610f0b565b86831015610f4d5784890151610f49601f891682610e5c565b8355505b6001600288020188555050505b505050505050565b5f610f6c8261072a565b91507fffffffffffffffffffffffffffffffffffffffffffffffffffffffffffffffff8203610f9e57610f9d610bae565b5b60018201905091905056fea264697066735822122012e63e8a37e3b36e2f9959e9f113ab3007e2cecab778012a16e65ef6d08c6d6664736f6c63430008150033",
      "opcodes": "PUSH1 0x80 PUSH1 0x40 MSTORE CALLVALUE DUP1 ISZERO PUSH3 0x10 JUMPI PUSH0 DUP1 REVERT JUMPDEST POP PUSH1 0x40 MLOAD PUSH3 0x115B CODESIZE SUB DUP1 PUSH3 0x115B DUP4 CODECOPY DUP2 DUP2 ADD PUSH1 0x40 MSTORE DUP2 ADD SWAP1 PUSH3 0x36 SWAP2 SWAP1 PUSH3 0x129 JUMP JUMPDEST DUP1 PUSH1 0x1 PUSH0 PUSH2 0x100 EXP DUP2 SLOAD DUP2 PUSH20 0xFFFFFFFFFFFFFFFFFFFFFFFFFFFFFFFFFFFFFFFF MUL NOT AND SWAP1 DUP4 PUSH20 0xFFFFFFFFFFFFFFFFFFFFFFFFFFFFFFFFFFFFFFFF AND MUL OR SWAP1 SSTORE POP DUP2 PUSH1 0x2 DUP2 SWAP1 SSTORE POP PUSH0 PUSH1 0x4 DUP2 SWAP1 SSTORE POP POP POP PUSH3 0x16E JUMP JUMPDEST PUSH0 DUP1 REVERT JUMPDEST PUSH0 DUP2 SWAP1 POP SWAP2 SWAP1 POP JUMP JUMPDEST PUSH3 0xA4 DUP2 PUSH3 0x90 JUMP JUMPDEST DUP2 EQ PUSH3 0xAF JUMPI PUSH0 DUP1 REVERT JUMPDEST POP JUMP JUMPDEST PUSH0 DUP2 MLOAD SWAP1 POP PUSH3 0xC2 DUP2 PUSH3 0x99 JUMP JUMPDEST SWAP3 SWAP2 POP POP JUMP JUMPDEST PUSH0 PUSH20 0xFFFFFFFFFFFFFFFFFFFFFFFFFFFFFFFFFFFFFFFF DUP3 AND SWAP1 POP SWAP2 SWAP1 POP JUMP JUMPDEST PUSH0 PUSH3 0xF3 DUP3 PUSH3 0xC8 JUMP JUMPDEST SWAP1 POP SWAP2 SWAP1 POP JUMP JUMPDEST PUSH3 0x105 DUP2 PUSH3 0xE7 JUMP JUMPDEST DUP2 EQ PUSH3 0x110 JUMPI PUSH0 DUP1 REVERT JUMPDEST POP JUMP JUMPDEST PUSH0 DUP2 MLOAD SWAP1 POP PUSH3 0x123 DUP2 PUSH3 0xFA JUMP JUMPDEST SWAP3 SWAP2 POP POP JUMP JUMPDEST PUSH0 DUP1 PUSH1 0x40 DUP4 DUP6 SUB SLT ISZERO PUSH3 0x142 JUMPI PUSH3 0x141 PUSH3 0x8C JUMP JUMPDEST JUMPDEST PUSH0 PUSH3 0x151 DUP6 DUP3 DUP7 ADD PUSH3 0xB2 JUMP JUMPDEST SWAP3 POP POP PUSH1 0x20 PUSH3 0x164 DUP6 DUP3 DUP7 ADD PUSH3 0x113 JUMP JUMPDEST SWAP2 POP POP SWAP3 POP SWAP3 SWAP1 POP JUMP JUMPDEST PUSH2 0xFDF DUP1 PUSH3 0x17C PUSH0 CODECOPY PUSH0 RETURN INVALID PUSH1 0x80 PUSH1 0x40 MSTORE PUSH1 0x4 CALLDATASIZE LT PUSH2 0x85 JUMPI PUSH0 CALLDATALOAD PUSH1 0xE0 SHR DUP1 PUSH4 0x82FDE093 GT PUSH2 0x58 JUMPI DUP1 PUSH4 0x82FDE093 EQ PUSH2 0x157 JUMPI DUP1 PUSH4 0x8A9CFD55 EQ PUSH2 0x181 JUMPI DUP1 PUSH4 0x937E09B1 EQ PUSH2 0x1A9 JUMPI DUP1 PUSH4 0xD7BB99BA EQ PUSH2 0x1D3 JUMPI DUP1 PUSH4 0xD7D1BBDB EQ PUSH2 0x1DD JUMPI PUSH2 0x85 JUMP JUMPDEST DUP1 PUSH4 0x3441006 EQ PUSH2 0x89 JUMPI DUP1 PUSH4 0xA144391 EQ PUSH2 0xB1 JUMPI DUP1 PUSH4 0x481C6A75 EQ PUSH2 0xED JUMPI DUP1 PUSH4 0x81D12C58 EQ PUSH2 0x117 JUMPI JUMPDEST PUSH0 DUP1 REVERT JUMPDEST CALLVALUE DUP1 ISZERO PUSH2 0x94 JUMPI PUSH0 DUP1 REVERT JUMPDEST POP PUSH2 0xAF PUSH1 0x4 DUP1 CALLDATASIZE SUB DUP2 ADD SWAP1 PUSH2 0xAA SWAP2 SWAP1 PUSH2 0x75D JUMP JUMPDEST PUSH2 0x205 JUMP JUMPDEST STOP JUMPDEST CALLVALUE DUP1 ISZERO PUSH2 0xBC JUMPI PUSH0 DUP1 REVERT JUMPDEST POP PUSH2 0xD7 PUSH1 0x4 DUP1 CALLDATASIZE SUB DUP2 ADD SWAP1 PUSH2 0xD2 SWAP2 SWAP1 PUSH2 0x7E2 JUMP JUMPDEST PUSH2 0x2EB JUMP JUMPDEST PUSH1 0x40 MLOAD PUSH2 0xE4 SWAP2 SWAP1 PUSH2 0x827 JUMP JUMPDEST PUSH1 0x40 MLOAD DUP1 SWAP2 SUB SWAP1 RETURN JUMPDEST CALLVALUE DUP1 ISZERO PUSH2 0xF8 JUMPI PUSH0 DUP1 REVERT JUMPDEST POP PUSH2 0x101 PUSH2 0x308 JUMP JUMPDEST PUSH1 0x40 MLOAD PUSH2 0x10E SWAP2 SWAP1 PUSH2 0x84F JUMP JUMPDEST PUSH1 0x40 MLOAD DUP1 SWAP2 SUB SWAP1 RETURN JUMPDEST CALLVALUE DUP1 ISZERO PUSH2 0x122 JUMPI PUSH0 DUP1 REVERT JUMPDEST POP PUSH2 0x13D PUSH1 0x4 DUP1 CALLDATASIZE SUB DUP2 ADD SWAP1 PUSH2 0x138 SWAP2 SWAP1 PUSH2 0x75D JUMP JUMPDEST PUSH2 0x32D JUMP JUMPDEST PUSH1 0x40 MLOAD PUSH2 0x14E SWAP6 SWAP5 SWAP4 SWAP3 SWAP2 SWAP1 PUSH2 0x921 JUMP JUMPDEST PUSH1 0x40 MLOAD DUP1 SWAP2 SUB SWAP1 RETURN JUMPDEST CALLVALUE DUP1 ISZERO PUSH2 0x162 JUMPI PUSH0 DUP1 REVERT JUMPDEST POP PUSH2 0x16B PUSH2 0x41F JUMP JUMPDEST PUSH1 0x40 MLOAD PUSH2 0x178 SWAP2 SWAP1 PUSH2 0x979 JUMP JUMPDEST PUSH1 0x40 MLOAD DUP1 SWAP2 SUB SWAP1 RETURN JUMPDEST CALLVALUE DUP1 ISZERO PUSH2 0x18C JUMPI PUSH0 DUP1 REVERT JUMPDEST POP PUSH2 0x1A7 PUSH1 0x4 DUP1 CALLDATASIZE SUB DUP2 ADD SWAP1 PUSH2 0x1A2 SWAP2 SWAP1 PUSH2 0xAE8 JUMP JUMPDEST PUSH2 0x425 JUMP JUMPDEST STOP JUMPDEST CALLVALUE DUP1 ISZERO PUSH2 0x1B4 JUMPI PUSH0 DUP1 REVERT JUMPDEST POP PUSH2 0x1BD PUSH2 0x55B JUMP JUMPDEST PUSH1 0x40 MLOAD PUSH2 0x1CA SWAP2 SWAP1 PUSH2 0x979 JUMP JUMPDEST PUSH1 0x40 MLOAD DUP1 SWAP2 SUB SWAP1 RETURN JUMPDEST PUSH2 0x1DB PUSH2 0x561 JUMP JUMPDEST STOP JUMPDEST CALLVALUE DUP1 ISZERO PUSH2 0x1E8 JUMPI PUSH0 DUP1 REVERT JUMPDEST POP PUSH2 0x203 PUSH1 0x4 DUP1 CALLDATASIZE SUB DUP2 ADD SWAP1 PUSH2 0x1FE SWAP2 SWAP1 PUSH2 0x75D JUMP JUMPDEST PUSH2 0x5DC JUMP JUMPDEST STOP JUMPDEST PUSH0 DUP1 DUP3 DUP2 SLOAD DUP2 LT PUSH2 0x219 JUMPI PUSH2 0x218 PUSH2 0xB54 JUMP JUMPDEST JUMPDEST SWAP1 PUSH0 MSTORE PUSH1 0x20 PUSH0 KECCAK256 SWAP1 PUSH1 0x5 MUL ADD SWAP1 POP PUSH1 0x2 PUSH1 0x4 SLOAD PUSH2 0x236 SWAP2 SWAP1 PUSH2 0xBDB JUMP JUMPDEST DUP2 PUSH1 0x3 ADD SLOAD GT PUSH2 0x244 JUMPI PUSH0 DUP1 REVERT JUMPDEST DUP1 PUSH1 0x2 ADD PUSH1 0x14 SWAP1 SLOAD SWAP1 PUSH2 0x100 EXP SWAP1 DIV PUSH1 0xFF AND ISZERO PUSH2 0x25F JUMPI PUSH0 DUP1 REVERT JUMPDEST DUP1 PUSH1 0x2 ADD PUSH0 SWAP1 SLOAD SWAP1 PUSH2 0x100 EXP SWAP1 DIV PUSH20 0xFFFFFFFFFFFFFFFFFFFFFFFFFFFFFFFFFFFFFFFF AND PUSH20 0xFFFFFFFFFFFFFFFFFFFFFFFFFFFFFFFFFFFFFFFF AND PUSH2 0x8FC DUP3 PUSH1 0x1 ADD SLOAD SWAP1 DUP2 ISZERO MUL SWAP1 PUSH1 0x40 MLOAD PUSH0 PUSH1 0x40 MLOAD DUP1 DUP4 SUB DUP2 DUP6 DUP9 DUP9 CALL SWAP4 POP POP POP POP ISZERO DUP1 ISZERO PUSH2 0x2C9 JUMPI RETURNDATASIZE PUSH0 DUP1 RETURNDATACOPY RETURNDATASIZE PUSH0 REVERT JUMPDEST POP PUSH1 0x1 DUP2 PUSH1 0x2 ADD PUSH1 0x14 PUSH2 0x100 EXP DUP2 SLOAD DUP2 PUSH1 0xFF MUL NOT AND SWAP1 DUP4 ISZERO ISZERO MUL OR SWAP1 SSTORE POP POP POP JUMP JUMPDEST PUSH1 0x3 PUSH1 0x20 MSTORE DUP1 PUSH0 MSTORE PUSH1 0x40 PUSH0 KECCAK256 PUSH0 SWAP2 POP SLOAD SWAP1 PUSH2 0x100 EXP SWAP1 DIV PUSH1 0xFF AND DUP2 JUMP JUMPDEST PUSH1 0x1 PUSH0 SWAP1 SLOAD SWAP1 PUSH2 0x100 EXP SWAP1 DIV PUSH20 0xFFFFFFFFFFFFFFFFFFFFFFFFFFFFFFFFFFFFFFFF AND DUP2 JUMP JUMPDEST PUSH0 DUP2 DUP2 SLOAD DUP2 LT PUSH2 0x33B JUMPI PUSH0 DUP1 REVERT JUMPDEST SWAP1 PUSH0 MSTORE PUSH1 0x20 PUSH0 KECCAK256 SWAP1 PUSH1 0x5 MUL ADD PUSH0 SWAP2 POP SWAP1 POP DUP1 PUSH0 ADD DUP1 SLOAD PUSH2 0x35A SWAP1 PUSH2 0xC38 JUMP JUMPDEST DUP1 PUSH1 0x1F ADD PUSH1 0x20 DUP1 SWAP2 DIV MUL PUSH1 0x20 ADD PUSH1 0x40 MLOAD SWAP1 DUP2 ADD PUSH1 0x40 MSTORE DUP1 SWAP3 SWAP2 SWAP1 DUP2 DUP2 MSTORE PUSH1 0x20 ADD DUP3 DUP1 SLOAD PUSH2 0x386 SWAP1 PUSH2 0xC38 JUMP JUMPDEST DUP1 ISZERO PUSH2 0x3D1 JUMPI DUP1 PUSH1 0x1F LT PUSH2 0x3A8 JUMPI PUSH2 0x100 DUP1 DUP4 SLOAD DIV MUL DUP4 MSTORE SWAP2 PUSH1 0x20 ADD SWAP2 PUSH2 0x3D1 JUMP JUMPDEST DUP3 ADD SWAP2 SWAP1 PUSH0 MSTORE PUSH1 0x20 PUSH0 KECCAK256 SWAP1 JUMPDEST DUP2 SLOAD DUP2 MSTORE SWAP1 PUSH1 0x1 ADD SWAP1 PUSH1 0x20 ADD DUP1 DUP4 GT PUSH2 0x3B4 JUMPI DUP3 SWAP1 SUB PUSH1 0x1F AND DUP3 ADD SWAP2 JUMPDEST POP POP POP POP POP SWAP1 DUP1 PUSH1 0x1 ADD SLOAD SWAP1 DUP1 PUSH1 0x2 ADD PUSH0 SWAP1 SLOAD SWAP1 PUSH2 0x100 EXP SWAP1 DIV PUSH20 0xFFFFFFFFFFFFFFFFFFFFFFFFFFFFFFFFFFFFFFFF AND SWAP1 DUP1 PUSH1 0x2 ADD PUSH1 0x14 SWAP1 SLOAD SWAP1 PUSH2 0x100 EXP SWAP1 DIV PUSH1 0xFF AND SWAP1 DUP1 PUSH1 0x3 ADD SLOAD SWAP1 POP DUP6 JUMP JUMPDEST PUSH1 0x4 SLOAD DUP2 JUMP JUMPDEST PUSH1 0x1 PUSH0 SWAP1 SLOAD SWAP1 PUSH2 0x100 EXP SWAP1 DIV PUSH20 0xFFFFFFFFFFFFFFFFFFFFFFFFFFFFFFFFFFFFFFFF AND PUSH20 0xFFFFFFFFFFFFFFFFFFFFFFFFFFFFFFFFFFFFFFFF AND CALLER PUSH20 0xFFFFFFFFFFFFFFFFFFFFFFFFFFFFFFFFFFFFFFFF AND EQ PUSH2 0x4B4 JUMPI PUSH1 0x40 MLOAD PUSH32 0x8C379A000000000000000000000000000000000000000000000000000000000 DUP2 MSTORE PUSH1 0x4 ADD PUSH2 0x4AB SWAP1 PUSH2 0xCD8 JUMP JUMPDEST PUSH1 0x40 MLOAD DUP1 SWAP2 SUB SWAP1 REVERT JUMPDEST PUSH0 DUP1 PUSH1 0x1 DUP2 PUSH1 0x1 DUP2 SLOAD ADD DUP1 DUP3 SSTORE DUP1 SWAP2 POP POP SUB SWAP1 PUSH0 MSTORE PUSH1 0x20 PUSH0 KECCAK256 SWAP1 PUSH1 0x5 MUL ADD SWAP1 POP DUP4 DUP2 PUSH0 ADD SWAP1 DUP2 PUSH2 0x4E4 SWAP2 SWAP1 PUSH2 0xE93 JUMP JUMPDEST POP DUP3 DUP2 PUSH1 0x1 ADD DUP2 SWAP1 SSTORE POP DUP2 DUP2 PUSH1 0x2 ADD PUSH0 PUSH2 0x100 EXP DUP2 SLOAD DUP2 PUSH20 0xFFFFFFFFFFFFFFFFFFFFFFFFFFFFFFFFFFFFFFFF MUL NOT AND SWAP1 DUP4 PUSH20 0xFFFFFFFFFFFFFFFFFFFFFFFFFFFFFFFFFFFFFFFF AND MUL OR SWAP1 SSTORE POP PUSH0 DUP2 PUSH1 0x2 ADD PUSH1 0x14 PUSH2 0x100 EXP DUP2 SLOAD DUP2 PUSH1 0xFF MUL NOT AND SWAP1 DUP4 ISZERO ISZERO MUL OR SWAP1 SSTORE POP PUSH0 DUP2 PUSH1 0x3 ADD DUP2 SWAP1 SSTORE POP POP POP POP POP JUMP JUMPDEST PUSH1 0x2 SLOAD DUP2 JUMP JUMPDEST PUSH1 0x2 SLOAD CALLVALUE GT PUSH2 0x56E JUMPI PUSH0 DUP1 REVERT JUMPDEST PUSH1 0x1 PUSH1 0x3 PUSH0 CALLER PUSH20 0xFFFFFFFFFFFFFFFFFFFFFFFFFFFFFFFFFFFFFFFF AND PUSH20 0xFFFFFFFFFFFFFFFFFFFFFFFFFFFFFFFFFFFFFFFF AND DUP2 MSTORE PUSH1 0x20 ADD SWAP1 DUP2 MSTORE PUSH1 0x20 ADD PUSH0 KECCAK256 PUSH0 PUSH2 0x100 EXP DUP2 SLOAD DUP2 PUSH1 0xFF MUL NOT AND SWAP1 DUP4 ISZERO ISZERO MUL OR SWAP1 SSTORE POP PUSH1 0x4 PUSH0 DUP2 SLOAD DUP1 SWAP3 SWAP2 SWAP1 PUSH2 0x5D5 SWAP1 PUSH2 0xF62 JUMP JUMPDEST SWAP2 SWAP1 POP SSTORE POP JUMP JUMPDEST PUSH0 DUP1 DUP3 DUP2 SLOAD DUP2 LT PUSH2 0x5F0 JUMPI PUSH2 0x5EF PUSH2 0xB54 JUMP JUMPDEST JUMPDEST SWAP1 PUSH0 MSTORE PUSH1 0x20 PUSH0 KECCAK256 SWAP1 PUSH1 0x5 MUL ADD SWAP1 POP PUSH1 0x3 PUSH0 CALLER PUSH20 0xFFFFFFFFFFFFFFFFFFFFFFFFFFFFFFFFFFFFFFFF AND PUSH20 0xFFFFFFFFFFFFFFFFFFFFFFFFFFFFFFFFFFFFFFFF AND DUP2 MSTORE PUSH1 0x20 ADD SWAP1 DUP2 MSTORE PUSH1 0x20 ADD PUSH0 KECCAK256 PUSH0 SWAP1 SLOAD SWAP1 PUSH2 0x100 EXP SWAP1 DIV PUSH1 0xFF AND PUSH2 0x650 JUMPI PUSH0 DUP1 REVERT JUMPDEST DUP1 PUSH1 0x4 ADD PUSH0 CALLER PUSH20 0xFFFFFFFFFFFFFFFFFFFFFFFFFFFFFFFFFFFFFFFF AND PUSH20 0xFFFFFFFFFFFFFFFFFFFFFFFFFFFFFFFFFFFFFFFF AND DUP2 MSTORE PUSH1 0x20 ADD SWAP1 DUP2 MSTORE PUSH1 0x20 ADD PUSH0 KECCAK256 PUSH0 SWAP1 SLOAD SWAP1 PUSH2 0x100 EXP SWAP1 DIV PUSH1 0xFF AND ISZERO PUSH2 0x6A5 JUMPI PUSH0 DUP1 REVERT JUMPDEST PUSH1 0x1 DUP2 PUSH1 0x4 ADD PUSH0 CALLER PUSH20 0xFFFFFFFFFFFFFFFFFFFFFFFFFFFFFFFFFFFFFFFF AND PUSH20 0xFFFFFFFFFFFFFFFFFFFFFFFFFFFFFFFFFFFFFFFF AND DUP2 MSTORE PUSH1 0x20 ADD SWAP1 DUP2 MSTORE PUSH1 0x20 ADD PUSH0 KECCAK256 PUSH0 PUSH2 0x100 EXP DUP2 SLOAD DUP2 PUSH1 0xFF MUL NOT AND SWAP1 DUP4 ISZERO ISZERO MUL OR SWAP1 SSTORE POP DUP1 PUSH1 0x3 ADD PUSH0 DUP2 SLOAD DUP1 SWAP3 SWAP2 SWAP1 PUSH2 0x710 SWAP1 PUSH2 0xF62 JUMP JUMPDEST SWAP2 SWAP1 POP SSTORE POP POP POP JUMP JUMPDEST PUSH0 PUSH1 0x40 MLOAD SWAP1 POP SWAP1 JUMP JUMPDEST PUSH0 DUP1 REVERT JUMPDEST PUSH0 DUP1 REVERT JUMPDEST PUSH0 DUP2 SWAP1 POP SWAP2 SWAP1 POP JUMP JUMPDEST PUSH2 0x73C DUP2 PUSH2 0x72A JUMP JUMPDEST DUP2 EQ PUSH2 0x746 JUMPI PUSH0 DUP1 REVERT JUMPDEST POP JUMP JUMPDEST PUSH0 DUP2 CALLDATALOAD SWAP1 POP PUSH2 0x757 DUP2 PUSH2 0x733 JUMP JUMPDEST SWAP3 SWAP2 POP POP JUMP JUMPDEST PUSH0 PUSH1 0x20 DUP3 DUP5 SUB SLT ISZERO PUSH2 0x772 JUMPI PUSH2 0x771 PUSH2 0x722 JUMP JUMPDEST JUMPDEST PUSH0 PUSH2 0x77F DUP5 DUP3 DUP6 ADD PUSH2 0x749 JUMP JUMPDEST SWAP2 POP POP SWAP3 SWAP2 POP POP JUMP JUMPDEST PUSH0 PUSH20 0xFFFFFFFFFFFFFFFFFFFFFFFFFFFFFFFFFFFFFFFF DUP3 AND SWAP1 POP SWAP2 SWAP1 POP JUMP JUMPDEST PUSH0 PUSH2 0x7B1 DUP3 PUSH2 0x788 JUMP JUMPDEST SWAP1 POP SWAP2 SWAP1 POP JUMP JUMPDEST PUSH2 0x7C1 DUP2 PUSH2 0x7A7 JUMP JUMPDEST DUP2 EQ PUSH2 0x7CB JUMPI PUSH0 DUP1 REVERT JUMPDEST POP JUMP JUMPDEST PUSH0 DUP2 CALLDATALOAD SWAP1 POP PUSH2 0x7DC DUP2 PUSH2 0x7B8 JUMP JUMPDEST SWAP3 SWAP2 POP POP JUMP JUMPDEST PUSH0 PUSH1 0x20 DUP3 DUP5 SUB SLT ISZERO PUSH2 0x7F7 JUMPI PUSH2 0x7F6 PUSH2 0x722 JUMP JUMPDEST JUMPDEST PUSH0 PUSH2 0x804 DUP5 DUP3 DUP6 ADD PUSH2 0x7CE JUMP JUMPDEST SWAP2 POP POP SWAP3 SWAP2 POP POP JUMP JUMPDEST PUSH0 DUP2 ISZERO ISZERO SWAP1 POP SWAP2 SWAP1 POP JUMP JUMPDEST PUSH2 0x821 DUP2 PUSH2 0x80D JUMP JUMPDEST DUP3 MSTORE POP POP JUMP JUMPDEST PUSH0 PUSH1 0x20 DUP3 ADD SWAP1 POP PUSH2 0x83A PUSH0 DUP4 ADD DUP5 PUSH2 0x818 JUMP JUMPDEST SWAP3 SWAP2 POP POP JUMP JUMPDEST PUSH2 0x849 DUP2 PUSH2 0x7A7 JUMP JUMPDEST DUP3 MSTORE POP POP JUMP JUMPDEST PUSH0 PUSH1 0x20 DUP3 ADD SWAP1 POP PUSH2 0x862 PUSH0 DUP4 ADD DUP5 PUSH2 0x840 JUMP JUMPDEST SWAP3 SWAP2 POP POP JUMP JUMPDEST PUSH0 DUP2 MLOAD SWAP1 POP SWAP2 SWAP1 POP JUMP JUMPDEST PUSH0 DUP3 DUP3 MSTORE PUSH1 0x20 DUP3 ADD SWAP1 POP SWAP3 SWAP2 POP POP JUMP JUMPDEST PUSH0 JUMPDEST DUP4 DUP2 LT ISZERO PUSH2 0x89F JUMPI DUP1 DUP3 ADD MLOAD DUP2 DUP5 ADD MSTORE PUSH1 0x20 DUP2 ADD SWAP1 POP PUSH2 0x884 JUMP JUMPDEST PUSH0 DUP5 DUP5 ADD MSTORE POP POP POP POP JUMP JUMPDEST PUSH0 PUSH1 0x1F NOT PUSH1 0x1F DUP4 ADD AND SWAP1 POP SWAP2 SWAP1 POP JUMP JUMPDEST PUSH0 PUSH2 0x8C4 DUP3 PUSH2 0x868 JUMP JUMPDEST PUSH2 0x8CE DUP2 DUP6 PUSH2 0x872 JUMP JUMPDEST SWAP4 POP PUSH2 0x8DE DUP2 DUP6 PUSH1 0x20 DUP7 ADD PUSH2 0x882 JUMP JUMPDEST PUSH2 0x8E7 DUP2 PUSH2 0x8AA JUMP JUMPDEST DUP5 ADD SWAP2 POP POP SWAP3 SWAP2 POP POP JUMP JUMPDEST PUSH2 0x8FB DUP2 PUSH2 0x72A JUMP JUMPDEST DUP3 MSTORE POP POP JUMP JUMPDEST PUSH0 PUSH2 0x90B DUP3 PUSH2 0x788 JUMP JUMPDEST SWAP1 POP SWAP2 SWAP1 POP JUMP JUMPDEST PUSH2 0x91B DUP2 PUSH2 0x901 JUMP JUMPDEST DUP3 MSTORE POP POP JUMP JUMPDEST PUSH0 PUSH1 0xA0 DUP3 ADD SWAP1 POP DUP2 DUP2 SUB PUSH0 DUP4 ADD MSTORE PUSH2 0x939 DUP2 DUP9 PUSH2 0x8BA JUMP JUMPDEST SWAP1 POP PUSH2 0x948 PUSH1 0x20 DUP4 ADD DUP8 PUSH2 0x8F2 JUMP JUMPDEST PUSH2 0x955 PUSH1 0x40 DUP4 ADD DUP7 PUSH2 0x912 JUMP JUMPDEST PUSH2 0x962 PUSH1 0x60 DUP4 ADD DUP6 PUSH2 0x818 JUMP JUMPDEST PUSH2 0x96F PUSH1 0x80 DUP4 ADD DUP5 PUSH2 0x8F2 JUMP JUMPDEST SWAP7 SWAP6 POP POP POP POP POP POP JUMP JUMPDEST PUSH0 PUSH1 0x20 DUP3 ADD SWAP1 POP PUSH2 0x98C PUSH0 DUP4 ADD DUP5 PUSH2 0x8F2 JUMP JUMPDEST SWAP3 SWAP2 POP POP JUMP JUMPDEST PUSH0 DUP1 REVERT JUMPDEST PUSH0 DUP1 REVERT JUMPDEST PUSH32 0x4E487B7100000000000000000000000000000000000000000000000000000000 PUSH0 MSTORE PUSH1 0x41 PUSH1 0x4 MSTORE PUSH1 0x24 PUSH0 REVERT JUMPDEST PUSH2 0x9D0 DUP3 PUSH2 0x8AA JUMP JUMPDEST DUP2 ADD DUP2 DUP2 LT PUSH8 0xFFFFFFFFFFFFFFFF DUP3 GT OR ISZERO PUSH2 0x9EF JUMPI PUSH2 0x9EE PUSH2 0x99A JUMP JUMPDEST JUMPDEST DUP1 PUSH1 0x40 MSTORE POP POP POP JUMP JUMPDEST PUSH0 PUSH2 0xA01 PUSH2 0x719 JUMP JUMPDEST SWAP1 POP PUSH2 0xA0D DUP3 DUP3 PUSH2 0x9C7 JUMP JUMPDEST SWAP2 SWAP1 POP JUMP JUMPDEST PUSH0 PUSH8 0xFFFFFFFFFFFFFFFF DUP3 GT ISZERO PUSH2 0xA2C JUMPI PUSH2 0xA2B PUSH2 0x99A JUMP JUMPDEST JUMPDEST PUSH2 0xA35 DUP3 PUSH2 0x8AA JUMP JUMPDEST SWAP1 POP PUSH1 0x20 DUP2 ADD SWAP1 POP SWAP2 SWAP1 POP JUMP JUMPDEST DUP3 DUP2 DUP4 CALLDATACOPY PUSH0 DUP4 DUP4 ADD MSTORE POP POP POP JUMP JUMPDEST PUSH0 PUSH2 0xA62 PUSH2 0xA5D DUP5 PUSH2 0xA12 JUMP JUMPDEST PUSH2 0x9F8 JUMP JUMPDEST SWAP1 POP DUP3 DUP2 MSTORE PUSH1 0x20 DUP2 ADD DUP5 DUP5 DUP5 ADD GT ISZERO PUSH2 0xA7E JUMPI PUSH2 0xA7D PUSH2 0x996 JUMP JUMPDEST JUMPDEST PUSH2 0xA89 DUP5 DUP3 DUP6 PUSH2 0xA42 JUMP JUMPDEST POP SWAP4 SWAP3 POP POP POP JUMP JUMPDEST PUSH0 DUP3 PUSH1 0x1F DUP4 ADD SLT PUSH2 0xAA5 JUMPI PUSH2 0xAA4 PUSH2 0x992 JUMP JUMPDEST JUMPDEST DUP2 CALLDATALOAD PUSH2 0xAB5 DUP5 DUP3 PUSH1 0x20 DUP7 ADD PUSH2 0xA50 JUMP JUMPDEST SWAP2 POP POP SWAP3 SWAP2 POP POP JUMP JUMPDEST PUSH2 0xAC7 DUP2 PUSH2 0x901 JUMP JUMPDEST DUP2 EQ PUSH2 0xAD1 JUMPI PUSH0 DUP1 REVERT JUMPDEST POP JUMP JUMPDEST PUSH0 DUP2 CALLDATALOAD SWAP1 POP PUSH2 0xAE2 DUP2 PUSH2 0xABE JUMP JUMPDEST SWAP3 SWAP2 POP POP JUMP JUMPDEST PUSH0 DUP1 PUSH0 PUSH1 0x60 DUP5 DUP7 SUB SLT ISZERO PUSH2 0xAFF JUMPI PUSH2 0xAFE PUSH2 0x722 JUMP JUMPDEST JUMPDEST PUSH0 DUP5 ADD CALLDATALOAD PUSH8 0xFFFFFFFFFFFFFFFF DUP2 GT ISZERO PUSH2 0xB1C JUMPI PUSH2 0xB1B PUSH2 0x726 JUMP JUMPDEST JUMPDEST PUSH2 0xB28 DUP7 DUP3 DUP8 ADD PUSH2 0xA91 JUMP JUMPDEST SWAP4 POP POP PUSH1 0x20 PUSH2 0xB39 DUP7 DUP3 DUP8 ADD PUSH2 0x749 JUMP JUMPDEST SWAP3 POP POP PUSH1 0x40 PUSH2 0xB4A DUP7 DUP3 DUP8 ADD PUSH2 0xAD4 JUMP JUMPDEST SWAP2 POP POP SWAP3 POP SWAP3 POP SWAP3 JUMP JUMPDEST PUSH32 0x4E487B7100000000000000000000000000000000000000000000000000000000 PUSH0 MSTORE PUSH1 0x32 PUSH1 0x4 MSTORE PUSH1 0x24 PUSH0 REVERT JUMPDEST PUSH32 0x4E487B7100000000000000000000000000000000000000000000000000000000 PUSH0 MSTORE PUSH1 0x12 PUSH1 0x4 MSTORE PUSH1 0x24 PUSH0 REVERT JUMPDEST PUSH32 0x4E487B7100000000000000000000000000000000000000000000000000000000 PUSH0 MSTORE PUSH1 0x11 PUSH1 0x4 MSTORE PUSH1 0x24 PUSH0 REVERT JUMPDEST PUSH0 PUSH2 0xBE5 DUP3 PUSH2 0x72A JUMP JUMPDEST SWAP2 POP PUSH2 0xBF0 DUP4 PUSH2 0x72A JUMP JUMPDEST SWAP3 POP DUP3 PUSH2 0xC00 JUMPI PUSH2 0xBFF PUSH2 0xB81 JUMP JUMPDEST JUMPDEST DUP3 DUP3 DIV SWAP1 POP SWAP3 SWAP2 POP POP JUMP JUMPDEST PUSH32 0x4E487B7100000000000000000000000000000000000000000000000000000000 PUSH0 MSTORE PUSH1 0x22 PUSH1 0x4 MSTORE PUSH1 0x24 PUSH0 REVERT JUMPDEST PUSH0 PUSH1 0x2 DUP3 DIV SWAP1 POP PUSH1 0x1 DUP3 AND DUP1 PUSH2 0xC4F JUMPI PUSH1 0x7F DUP3 AND SWAP2 POP JUMPDEST PUSH1 0x20 DUP3 LT DUP2 SUB PUSH2 0xC62 JUMPI PUSH2 0xC61 PUSH2 0xC0B JUMP JUMPDEST JUMPDEST POP SWAP2 SWAP1 POP JUMP JUMPDEST PUSH32 0x4F6E6C7920746865206D616E616765722063616E206D616B6520746865207265 PUSH0 DUP3 ADD MSTORE PUSH32 0x7175657374000000000000000000000000000000000000000000000000000000 PUSH1 0x20 DUP3 ADD MSTORE POP JUMP JUMPDEST PUSH0 PUSH2 0xCC2 PUSH1 0x25 DUP4 PUSH2 0x872 JUMP JUMPDEST SWAP2 POP PUSH2 0xCCD DUP3 PUSH2 0xC68 JUMP JUMPDEST PUSH1 0x40 DUP3 ADD SWAP1 POP SWAP2 SWAP1 POP JUMP JUMPDEST PUSH0 PUSH1 0x20 DUP3 ADD SWAP1 POP DUP2 DUP2 SUB PUSH0 DUP4 ADD MSTORE PUSH2 0xCEF DUP2 PUSH2 0xCB6 JUMP JUMPDEST SWAP1 POP SWAP2 SWAP1 POP JUMP JUMPDEST PUSH0 DUP2 SWAP1 POP DUP2 PUSH0 MSTORE PUSH1 0x20 PUSH0 KECCAK256 SWAP1 POP SWAP2 SWAP1 POP JUMP JUMPDEST PUSH0 PUSH1 0x20 PUSH1 0x1F DUP4 ADD DIV SWAP1 POP SWAP2 SWAP1 POP JUMP JUMPDEST PUSH0 DUP3 DUP3 SHL SWAP1 POP SWAP3 SWAP2 POP POP JUMP JUMPDEST PUSH0 PUSH1 0x8 DUP4 MUL PUSH2 0xD52 PUSH32 0xFFFFFFFFFFFFFFFFFFFFFFFFFFFFFFFFFFFFFFFFFFFFFFFFFFFFFFFFFFFFFFFF DUP3 PUSH2 0xD17 JUMP JUMPDEST PUSH2 0xD5C DUP7 DUP4 PUSH2 0xD17 JUMP JUMPDEST SWAP6 POP DUP1 NOT DUP5 AND SWAP4 POP DUP1 DUP7 AND DUP5 OR SWAP3 POP POP POP SWAP4 SWAP3 POP POP POP JUMP JUMPDEST PUSH0 DUP2 SWAP1 POP SWAP2 SWAP1 POP JUMP JUMPDEST PUSH0 PUSH2 0xD97 PUSH2 0xD92 PUSH2 0xD8D DUP5 PUSH2 0x72A JUMP JUMPDEST PUSH2 0xD74 JUMP JUMPDEST PUSH2 0x72A JUMP JUMPDEST SWAP1 POP SWAP2 SWAP1 POP JUMP JUMPDEST PUSH0 DUP2 SWAP1 POP SWAP2 SWAP1 POP JUMP JUMPDEST PUSH2 0xDB0 DUP4 PUSH2 0xD7D JUMP JUMPDEST PUSH2 0xDC4 PUSH2 0xDBC DUP3 PUSH2 0xD9E JUMP JUMPDEST DUP5 DUP5 SLOAD PUSH2 0xD23 JUMP JUMPDEST DUP3 SSTORE POP POP POP POP JUMP JUMPDEST PUSH0 SWAP1 JUMP JUMPDEST PUSH2 0xDD8 PUSH2 0xDCC JUMP JUMPDEST PUSH2 0xDE3 DUP2 DUP5 DUP5 PUSH2 0xDA7 JUMP JUMPDEST POP POP POP JUMP JUMPDEST JUMPDEST DUP2 DUP2 LT ISZERO PUSH2 0xE06 JUMPI PUSH2 0xDFB PUSH0 DUP3 PUSH2 0xDD0 JUMP JUMPDEST PUSH1 0x1 DUP2 ADD SWAP1 POP PUSH2 0xDE9 JUMP JUMPDEST POP POP JUMP JUMPDEST PUSH1 0x1F DUP3 GT ISZERO PUSH2 0xE4B JUMPI PUSH2 0xE1C DUP2 PUSH2 0xCF6 JUMP JUMPDEST PUSH2 0xE25 DUP5 PUSH2 0xD08 JUMP JUMPDEST DUP2 ADD PUSH1 0x20 DUP6 LT ISZERO PUSH2 0xE34 JUMPI DUP2 SWAP1 POP JUMPDEST PUSH2 0xE48 PUSH2 0xE40 DUP6 PUSH2 0xD08 JUMP JUMPDEST DUP4 ADD DUP3 PUSH2 0xDE8 JUMP JUMPDEST POP POP JUMPDEST POP POP POP JUMP JUMPDEST PUSH0 DUP3 DUP3 SHR SWAP1 POP SWAP3 SWAP2 POP POP JUMP JUMPDEST PUSH0 PUSH2 0xE6B PUSH0 NOT DUP5 PUSH1 0x8 MUL PUSH2 0xE50 JUMP JUMPDEST NOT DUP1 DUP4 AND SWAP2 POP POP SWAP3 SWAP2 POP POP JUMP JUMPDEST PUSH0 PUSH2 0xE83 DUP4 DUP4 PUSH2 0xE5C JUMP JUMPDEST SWAP2 POP DUP3 PUSH1 0x2 MUL DUP3 OR SWAP1 POP SWAP3 SWAP2 POP POP JUMP JUMPDEST PUSH2 0xE9C DUP3 PUSH2 0x868 JUMP JUMPDEST PUSH8 0xFFFFFFFFFFFFFFFF DUP2 GT ISZERO PUSH2 0xEB5 JUMPI PUSH2 0xEB4 PUSH2 0x99A JUMP JUMPDEST JUMPDEST PUSH2 0xEBF DUP3 SLOAD PUSH2 0xC38 JUMP JUMPDEST PUSH2 0xECA DUP3 DUP3 DUP6 PUSH2 0xE0A JUMP JUMPDEST PUSH0 PUSH1 0x20 SWAP1 POP PUSH1 0x1F DUP4 GT PUSH1 0x1 DUP2 EQ PUSH2 0xEFB JUMPI PUSH0 DUP5 ISZERO PUSH2 0xEE9 JUMPI DUP3 DUP8 ADD MLOAD SWAP1 POP JUMPDEST PUSH2 0xEF3 DUP6 DUP3 PUSH2 0xE78 JUMP JUMPDEST DUP7 SSTORE POP PUSH2 0xF5A JUMP JUMPDEST PUSH1 0x1F NOT DUP5 AND PUSH2 0xF09 DUP7 PUSH2 0xCF6 JUMP JUMPDEST PUSH0 JUMPDEST DUP3 DUP2 LT ISZERO PUSH2 0xF30 JUMPI DUP5 DUP10 ADD MLOAD DUP3 SSTORE PUSH1 0x1 DUP3 ADD SWAP2 POP PUSH1 0x20 DUP6 ADD SWAP5 POP PUSH1 0x20 DUP2 ADD SWAP1 POP PUSH2 0xF0B JUMP JUMPDEST DUP7 DUP4 LT ISZERO PUSH2 0xF4D JUMPI DUP5 DUP10 ADD MLOAD PUSH2 0xF49 PUSH1 0x1F DUP10 AND DUP3 PUSH2 0xE5C JUMP JUMPDEST DUP4 SSTORE POP JUMPDEST PUSH1 0x1 PUSH1 0x2 DUP9 MUL ADD DUP9 SSTORE POP POP POP JUMPDEST POP POP POP POP POP POP JUMP JUMPDEST PUSH0 PUSH2 0xF6C DUP3 PUSH2 0x72A JUMP JUMPDEST SWAP2 POP PUSH32 0xFFFFFFFFFFFFFFFFFFFFFFFFFFFFFFFFFFFFFFFFFFFFFFFFFFFFFFFFFFFFFFFF DUP3 SUB PUSH2 0xF9E JUMPI PUSH2 0xF9D PUSH2 0xBAE JUMP JUMPDEST JUMPDEST PUSH1 0x1 DUP3 ADD SWAP1 POP SWAP2 SWAP1 POP JUMP INVALID LOG2 PUSH5 0x6970667358 0x22 SLT KECCAK256 SLT 0xE6 RETURNDATACOPY DUP11 CALLDATACOPY 0xE3 0xB3 PUSH15 0x2F9959E9F113AB3007E2CECAB77801 0x2A AND 0xE6 0x5E 0xF6 0xD0 DUP13 PUSH14 0x6664736F6C634300081500330000 "
    },
    "gasEstimates": {
      "creation": {
        "codeDepositCost": "812600",
        "executionCost": "infinite",
        "totalCost": "infinite"
      },
      "external": {
        "approveRequest(uint256)": "infinite",
        "approvers(address)": "2856",
        "approversCount()": "2425",
        "contribute()": "51014",
        "createRequest(string,uint256,address)": "infinite",
        "finalizeRequest(uint256)": "infinite",
        "manager()": "2553",
        "minimumContribution()": "2469",
        "requests(uint256)": "infinite"
      }
    },
    "methodIdentifiers": {
      "approveRequest(uint256)": "d7d1bbdb",
      "approvers(address)": "0a144391",
      "approversCount()": "82fde093",
      "contribute()": "d7bb99ba",
      "createRequest(string,uint256,address)": "8a9cfd55",
      "finalizeRequest(uint256)": "03441006",
      "manager()": "481c6a75",
      "minimumContribution()": "937e09b1",
      "requests(uint256)": "81d12c58"
    }
  },
  "storageLayout": {
    "storage": [
      {
        "astId": 70,
        "contract": "Campaign.sol:Campaign",
        "label": "requests",
        "offset": 0,
        "slot": "0",
        "type": "t_array(t_struct(Request)54_storage)dyn_storage"
      },
      {
        "astId": 72,
        "contract": "Campaign.sol:Campaign",
        "label": "manager",
        "offset": 0,
        "slot": "1",
        "type": "t_address"
      },
      {
        "astId": 74,
        "contract": "Campaign.sol:Campaign",
        "label": "minimumContribution",
        "offset": 0,
        "slot": "2",
        "type": "t_uint256"
      },
      {
        "astId": 78,
        "contract": "Campaign.sol:Campaign",
        "label": "approvers",
        "offset": 0,
        "slot": "3",
        "type": "t_mapping(t_address,t_bool)"
      },
      {
        "astId": 80,
        "contract": "Campaign.sol:Campaign",
        "label": "approversCount",
        "offset": 0,
        "slot": "4",
        "type": "t_uint256"
      }
    ],
    "types": {
      "t_address": {
        "encoding": "inplace",
        "label": "address",
        "numberOfBytes": "20"
      },
      "t_address_payable": {
        "encoding": "inplace",
        "label": "address payable",
        "numberOfBytes": "20"
      },
      "t_array(t_struct(Request)54_storage)dyn_storage": {
        "base": "t_struct(Request)54_storage",
        "encoding": "dynamic_array",
        "label": "struct Campaign.Request[]",
        "numberOfBytes": "32"
      },
      "t_bool": {
        "encoding": "inplace",
        "label": "bool",
        "numberOfBytes": "1"
      },
      "t_mapping(t_address,t_bool)": {
        "encoding": "mapping",
        "key": "t_address",
        "label": "mapping(address => bool)",
        "numberOfBytes": "32",
        "value": "t_bool"
      },
      "t_string_storage": {
        "encoding": "bytes",
        "label": "string",
        "numberOfBytes": "32"
      },
      "t_struct(Request)54_storage": {
        "encoding": "inplace",
        "label": "struct Campaign.Request",
        "members": [
          {
            "astId": 41,
            "contract": "Campaign.sol:Campaign",
            "label": "description",
            "offset": 0,
            "slot": "0",
            "type": "t_string_storage"
          },
          {
            "astId": 43,
            "contract": "Campaign.sol:Campaign",
            "label": "value",
            "offset": 0,
            "slot": "1",
            "type": "t_uint256"
          },
          {
            "astId": 45,
            "contract": "Campaign.sol:Campaign",
            "label": "recipient",
            "offset": 0,
            "slot": "2",
            "type": "t_address_payable"
          },
          {
            "astId": 47,
            "contract": "Campaign.sol:Campaign",
            "label": "complete",
            "offset": 20,
            "slot": "2",
            "type": "t_bool"
          },
          {
            "astId": 49,
            "contract": "Campaign.sol:Campaign",
            "label": "approvalCount",
            "offset": 0,
            "slot": "3",
            "type": "t_uint256"
          },
          {
            "astId": 53,
            "contract": "Campaign.sol:Campaign",
            "label": "approvals",
            "offset": 0,
            "slot": "4",
            "type": "t_mapping(t_address,t_bool)"
          }
        ],
        "numberOfBytes": "160"
      },
      "t_uint256": {
        "encoding": "inplace",
        "label": "uint256",
        "numberOfBytes": "32"
      }
    }
  },
  "userdoc": {
    "kind": "user",
    "methods": {},
    "version": 1
  }
}